{
  "contractName": "Function",
  "abi": [
    {
      "inputs": [],
      "stateMutability": "nonpayable",
      "type": "constructor"
    },
    {
      "anonymous": false,
      "inputs": [
        {
          "indexed": true,
          "internalType": "bytes32",
          "name": "role",
          "type": "bytes32"
        },
        {
          "indexed": true,
          "internalType": "bytes32",
          "name": "previousAdminRole",
          "type": "bytes32"
        },
        {
          "indexed": true,
          "internalType": "bytes32",
          "name": "newAdminRole",
          "type": "bytes32"
        }
      ],
      "name": "RoleAdminChanged",
      "type": "event"
    },
    {
      "anonymous": false,
      "inputs": [
        {
          "indexed": true,
          "internalType": "bytes32",
          "name": "role",
          "type": "bytes32"
        },
        {
          "indexed": true,
          "internalType": "address",
          "name": "account",
          "type": "address"
        },
        {
          "indexed": true,
          "internalType": "address",
          "name": "sender",
          "type": "address"
        }
      ],
      "name": "RoleGranted",
      "type": "event"
    },
    {
      "anonymous": false,
      "inputs": [
        {
          "indexed": true,
          "internalType": "bytes32",
          "name": "role",
          "type": "bytes32"
        },
        {
          "indexed": true,
          "internalType": "address",
          "name": "account",
          "type": "address"
        },
        {
          "indexed": true,
          "internalType": "address",
          "name": "sender",
          "type": "address"
        }
      ],
      "name": "RoleRevoked",
      "type": "event"
    },
    {
      "inputs": [],
      "name": "DEFAULT_ADMIN_ROLE",
      "outputs": [
        {
          "internalType": "bytes32",
          "name": "",
          "type": "bytes32"
        }
      ],
      "stateMutability": "view",
      "type": "function",
      "constant": true
    },
    {
      "inputs": [],
      "name": "EMERGENCY_OFFICERS",
      "outputs": [
        {
          "internalType": "bytes32",
          "name": "",
          "type": "bytes32"
        }
      ],
      "stateMutability": "view",
      "type": "function",
      "constant": true
    },
    {
      "inputs": [],
      "name": "MANAGER_ROLE",
      "outputs": [
        {
          "internalType": "bytes32",
          "name": "",
          "type": "bytes32"
        }
      ],
      "stateMutability": "view",
      "type": "function",
      "constant": true
    },
    {
      "inputs": [],
      "name": "PARTNERS",
      "outputs": [
        {
          "internalType": "bytes32",
          "name": "",
          "type": "bytes32"
        }
      ],
      "stateMutability": "view",
      "type": "function",
      "constant": true
    },
    {
      "inputs": [],
      "name": "UPGRADE_OFFICER",
      "outputs": [
        {
          "internalType": "bytes32",
          "name": "",
          "type": "bytes32"
        }
      ],
      "stateMutability": "view",
      "type": "function",
      "constant": true
    },
    {
      "inputs": [],
      "name": "_initialized",
      "outputs": [
        {
          "internalType": "bool",
          "name": "",
          "type": "bool"
        }
      ],
      "stateMutability": "view",
      "type": "function",
      "constant": true
    },
    {
      "inputs": [
        {
          "internalType": "uint256",
          "name": "",
          "type": "uint256"
        }
      ],
      "name": "buyers",
      "outputs": [
        {
          "internalType": "address",
          "name": "",
          "type": "address"
        }
      ],
      "stateMutability": "view",
      "type": "function",
      "constant": true
    },
    {
      "inputs": [
        {
          "internalType": "address",
          "name": "",
          "type": "address"
        }
      ],
      "name": "functionalAddress",
      "outputs": [
        {
          "internalType": "bool",
          "name": "",
          "type": "bool"
        }
      ],
      "stateMutability": "view",
      "type": "function",
      "constant": true
    },
    {
      "inputs": [
        {
          "internalType": "bytes32",
          "name": "role",
          "type": "bytes32"
        }
      ],
      "name": "getRoleAdmin",
      "outputs": [
        {
          "internalType": "bytes32",
          "name": "",
          "type": "bytes32"
        }
      ],
      "stateMutability": "view",
      "type": "function",
      "constant": true
    },
    {
      "inputs": [
        {
          "internalType": "bytes32",
          "name": "role",
          "type": "bytes32"
        },
        {
          "internalType": "uint256",
          "name": "index",
          "type": "uint256"
        }
      ],
      "name": "getRoleMember",
      "outputs": [
        {
          "internalType": "address",
          "name": "",
          "type": "address"
        }
      ],
      "stateMutability": "view",
      "type": "function",
      "constant": true
    },
    {
      "inputs": [
        {
          "internalType": "bytes32",
          "name": "role",
          "type": "bytes32"
        }
      ],
      "name": "getRoleMemberCount",
      "outputs": [
        {
          "internalType": "uint256",
          "name": "",
          "type": "uint256"
        }
      ],
      "stateMutability": "view",
      "type": "function",
      "constant": true
    },
    {
      "inputs": [
        {
          "internalType": "bytes32",
          "name": "role",
          "type": "bytes32"
        },
        {
          "internalType": "address",
          "name": "account",
          "type": "address"
        }
      ],
      "name": "grantRole",
      "outputs": [],
      "stateMutability": "nonpayable",
      "type": "function"
    },
    {
      "inputs": [
        {
          "internalType": "bytes32",
          "name": "role",
          "type": "bytes32"
        },
        {
          "internalType": "address",
          "name": "account",
          "type": "address"
        }
      ],
      "name": "hasRole",
      "outputs": [
        {
          "internalType": "bool",
          "name": "",
          "type": "bool"
        }
      ],
      "stateMutability": "view",
      "type": "function",
      "constant": true
    },
    {
      "inputs": [],
      "name": "owner",
      "outputs": [
        {
          "internalType": "address",
          "name": "",
          "type": "address"
        }
      ],
      "stateMutability": "view",
      "type": "function",
      "constant": true
    },
    {
      "inputs": [
        {
          "internalType": "uint256",
          "name": "",
          "type": "uint256"
        }
      ],
      "name": "partnerList",
      "outputs": [
        {
          "internalType": "string",
          "name": "",
          "type": "string"
        }
      ],
      "stateMutability": "view",
      "type": "function",
      "constant": true
    },
    {
      "inputs": [
        {
          "internalType": "bytes32",
          "name": "role",
          "type": "bytes32"
        },
        {
          "internalType": "address",
          "name": "account",
          "type": "address"
        }
      ],
      "name": "renounceRole",
      "outputs": [],
      "stateMutability": "nonpayable",
      "type": "function"
    },
    {
      "inputs": [
        {
          "internalType": "bytes32",
          "name": "role",
          "type": "bytes32"
        },
        {
          "internalType": "address",
          "name": "account",
          "type": "address"
        }
      ],
      "name": "revokeRole",
      "outputs": [],
      "stateMutability": "nonpayable",
      "type": "function"
    },
    {
      "inputs": [
        {
          "internalType": "bytes4",
          "name": "interfaceId",
          "type": "bytes4"
        }
      ],
      "name": "supportsInterface",
      "outputs": [
        {
          "internalType": "bool",
          "name": "",
          "type": "bool"
        }
      ],
      "stateMutability": "view",
      "type": "function",
      "constant": true
    },
    {
      "inputs": [
        {
          "internalType": "string",
          "name": "",
          "type": "string"
        }
      ],
      "name": "uintStorage",
      "outputs": [
        {
          "internalType": "uint256",
          "name": "",
          "type": "uint256"
        }
      ],
      "stateMutability": "view",
      "type": "function",
      "constant": true
    },
    {
      "inputs": [
        {
          "internalType": "address",
          "name": "_owner",
          "type": "address"
        }
      ],
      "name": "initialize",
      "outputs": [],
      "stateMutability": "nonpayable",
      "type": "function"
    },
    {
      "inputs": [
        {
          "internalType": "address",
          "name": "proxyAddress",
          "type": "address"
        },
        {
          "internalType": "string",
          "name": "_variable",
          "type": "string"
        }
      ],
      "name": "getTheNumber",
      "outputs": [
        {
          "internalType": "uint256",
          "name": "",
          "type": "uint256"
        }
      ],
      "stateMutability": "view",
      "type": "function",
      "constant": true
    },
    {
      "inputs": [
        {
          "internalType": "address",
          "name": "proxyAddress",
          "type": "address"
        },
        {
          "internalType": "string",
          "name": "_variable",
          "type": "string"
        },
        {
          "internalType": "uint256",
          "name": "toSet",
          "type": "uint256"
        }
      ],
      "name": "setTheNumber",
      "outputs": [],
      "stateMutability": "nonpayable",
      "type": "function"
    }
  ],
  "bytecode": "0x608060405234801561001057600080fd5b50600b60149054906101000a900460ff161561002b57600080fd5b6001600b60146101000a81548160ff0219169083151502179055506100553361005a60201b60201c565b61009e565b80600b60006101000a81548173ffffffffffffffffffffffffffffffffffffffff021916908373ffffffffffffffffffffffffffffffffffffffff16021790555050565b611c59806100ad6000396000f3fe608060405234801561001057600080fd5b50600436106101425760003560e01c806394b91f06116100b8578063d547741f1161007c578063d547741f146103af578063e5bd74f8146103cb578063ec87621c146103e9578063f13b874d14610407578063f2aa821814610437578063ffa3f38f1461046757610142565b806394b91f061461030b578063a217fddf14610329578063b5cfb05a14610347578063c4d66de814610363578063ca15c8731461037f57610142565b806336568abe1161010a57806336568abe146102115780637fc4351f1461022d57806385ccf0641461025d5780638da5cb5b1461028d5780639010d07c146102ab57806391d14854146102db57610142565b806301ffc9a714610147578063147dbafa14610177578063248a9ca3146101a75780632f2ff15d146101d75780633072cf60146101f3575b600080fd5b610161600480360381019061015c919061144b565b610485565b60405161016e919061168c565b60405180910390f35b610191600480360381019061018c91906112a6565b6104ff565b60405161019e919061168c565b60405180910390f35b6101c160048036038101906101bc919061139e565b61051f565b6040516101ce91906116a7565b60405180910390f35b6101f160048036038101906101ec91906113cb565b61053e565b005b6101fb610572565b604051610208919061168c565b60405180910390f35b61022b600480360381019061022691906113cb565b610585565b005b610247600480360381019061024291906112d3565b6105b9565b6040516102549190611724565b60405180910390f35b61027760048036038101906102729190611478565b6105e2565b6040516102849190611724565b60405180910390f35b610295610610565b6040516102a29190611671565b60405180910390f35b6102c560048036038101906102c0919061140b565b610636565b6040516102d29190611671565b60405180910390f35b6102f560048036038101906102f091906113cb565b610665565b604051610302919061168c565b60405180910390f35b6103136106cf565b60405161032091906116a7565b60405180910390f35b6103316106f3565b60405161033e91906116a7565b60405180910390f35b610361600480360381019061035c919061132f565b6106fa565b005b61037d600480360381019061037891906112a6565b610722565b005b6103996004803603810190610394919061139e565b610766565b6040516103a69190611724565b60405180910390f35b6103c960048036038101906103c491906113cb565b61078a565b005b6103d36107be565b6040516103e091906116a7565b60405180910390f35b6103f16107e2565b6040516103fe91906116a7565b60405180910390f35b610421600480360381019061041c91906114c1565b610806565b60405161042e91906116c2565b60405180910390f35b610451600480360381019061044c91906114c1565b6108b2565b60405161045e9190611671565b60405180910390f35b61046f6108f1565b60405161047c91906116a7565b60405180910390f35b60007f5a05180f000000000000000000000000000000000000000000000000000000007bffffffffffffffffffffffffffffffffffffffffffffffffffffffff1916827bffffffffffffffffffffffffffffffffffffffffffffffffffffffff191614806104f857506104f782610915565b5b9050919050565b600a6020528060005260406000206000915054906101000a900460ff1681565b6000806000838152602001908152602001600020600101549050919050565b610548828261098f565b61056d81600160008581526020019081526020016000206109b890919063ffffffff16565b505050565b600b60149054906101000a900460ff1681565b61058f82826109e8565b6105b48160016000858152602001908152602001600020610a6b90919063ffffffff16565b505050565b60006002826040516105cb9190611620565b908152602001604051809103902054905092915050565b6002818051602081018201805184825260208301602085012081835280955050505050506000915090505481565b600b60009054906101000a900473ffffffffffffffffffffffffffffffffffffffff1681565b600061065d8260016000868152602001908152602001600020610a9b90919063ffffffff16565b905092915050565b600080600084815260200190815260200160002060000160008373ffffffffffffffffffffffffffffffffffffffff1673ffffffffffffffffffffffffffffffffffffffff16815260200190815260200160002060009054906101000a900460ff16905092915050565b7f3c8423ff9fe65335563f5616901f1459e02fafa085751c8aaf5f91b0b006982381565b6000801b81565b8060028360405161070b9190611620565b908152602001604051809103902081905550505050565b80600b60006101000a81548173ffffffffffffffffffffffffffffffffffffffff021916908373ffffffffffffffffffffffffffffffffffffffff16021790555050565b600061078360016000848152602001908152602001600020610ab5565b9050919050565b6107948282610aca565b6107b98160016000858152602001908152602001600020610a6b90919063ffffffff16565b505050565b7fe9d0e485f08e27baee0a8ae54381bc81292327c4ccf9bc5fab2fe4f0386e937781565b7f8a383c952fa3b6cf68c809af9e47ea2531b95c56f330357f533bebcc3fed7ca381565b6004818154811061081657600080fd5b9060005260206000200160009150905080546108319061198a565b80601f016020809104026020016040519081016040528092919081815260200182805461085d9061198a565b80156108aa5780601f1061087f576101008083540402835291602001916108aa565b820191906000526020600020905b81548152906001019060200180831161088d57829003601f168201915b505050505081565b600781815481106108c257600080fd5b906000526020600020016000915054906101000a900473ffffffffffffffffffffffffffffffffffffffff1681565b7f94d356c6a55eaf8799345c99aff299019cbf14e68cc4c78e9f854ac57c94033c81565b60007f7965db0b000000000000000000000000000000000000000000000000000000007bffffffffffffffffffffffffffffffffffffffffffffffffffffffff1916827bffffffffffffffffffffffffffffffffffffffffffffffffffffffff19161480610988575061098782610af3565b5b9050919050565b6109988261051f565b6109a9816109a4610b5d565b610b65565b6109b38383610c02565b505050565b60006109e0836000018373ffffffffffffffffffffffffffffffffffffffff1660001b610ce2565b905092915050565b6109f0610b5d565b73ffffffffffffffffffffffffffffffffffffffff168173ffffffffffffffffffffffffffffffffffffffff1614610a5d576040517f08c379a0000000000000000000000000000000000000000000000000000000008152600401610a5490611704565b60405180910390fd5b610a678282610d52565b5050565b6000610a93836000018373ffffffffffffffffffffffffffffffffffffffff1660001b610e33565b905092915050565b6000610aaa8360000183610f47565b60001c905092915050565b6000610ac382600001610f72565b9050919050565b610ad38261051f565b610ae481610adf610b5d565b610b65565b610aee8383610d52565b505050565b60007f01ffc9a7000000000000000000000000000000000000000000000000000000007bffffffffffffffffffffffffffffffffffffffffffffffffffffffff1916827bffffffffffffffffffffffffffffffffffffffffffffffffffffffff1916149050919050565b600033905090565b610b6f8282610665565b610bfe57610b948173ffffffffffffffffffffffffffffffffffffffff166014610f83565b610ba28360001c6020610f83565b604051602001610bb3929190611637565b6040516020818303038152906040526040517f08c379a0000000000000000000000000000000000000000000000000000000008152600401610bf591906116c2565b60405180910390fd5b5050565b610c0c8282610665565b610cde57600160008084815260200190815260200160002060000160008373ffffffffffffffffffffffffffffffffffffffff1673ffffffffffffffffffffffffffffffffffffffff16815260200190815260200160002060006101000a81548160ff021916908315150217905550610c83610b5d565b73ffffffffffffffffffffffffffffffffffffffff168173ffffffffffffffffffffffffffffffffffffffff16837f2f8788117e7eff1d82e926ec794901d17c78024a50270940304540a733656f0d60405160405180910390a45b5050565b6000610cee83836111bf565b610d47578260000182908060018154018082558091505060019003906000526020600020016000909190919091505582600001805490508360010160008481526020019081526020016000208190555060019050610d4c565b600090505b92915050565b610d5c8282610665565b15610e2f57600080600084815260200190815260200160002060000160008373ffffffffffffffffffffffffffffffffffffffff1673ffffffffffffffffffffffffffffffffffffffff16815260200190815260200160002060006101000a81548160ff021916908315150217905550610dd4610b5d565b73ffffffffffffffffffffffffffffffffffffffff168173ffffffffffffffffffffffffffffffffffffffff16837ff6391f5c32d9c69d2a47ea670b442974b53935d1edc7fd64eb21e047a839171b60405160405180910390a45b5050565b60008083600101600084815260200190815260200160002054905060008114610f3b576000600182610e65919061186c565b9050600060018660000180549050610e7d919061186c565b9050818114610eec576000866000018281548110610e9e57610e9d611a7a565b5b9060005260206000200154905080876000018481548110610ec257610ec1611a7a565b5b90600052602060002001819055508387600101600083815260200190815260200160002081905550505b85600001805480610f0057610eff611a4b565b5b600190038181906000526020600020016000905590558560010160008681526020019081526020016000206000905560019350505050610f41565b60009150505b92915050565b6000826000018281548110610f5f57610f5e611a7a565b5b9060005260206000200154905092915050565b600081600001805490509050919050565b606060006002836002610f969190611812565b610fa091906117bc565b67ffffffffffffffff811115610fb957610fb8611aa9565b5b6040519080825280601f01601f191660200182016040528015610feb5781602001600182028036833780820191505090505b5090507f30000000000000000000000000000000000000000000000000000000000000008160008151811061102357611022611a7a565b5b60200101907effffffffffffffffffffffffffffffffffffffffffffffffffffffffffffff1916908160001a9053507f78000000000000000000000000000000000000000000000000000000000000008160018151811061108757611086611a7a565b5b60200101907effffffffffffffffffffffffffffffffffffffffffffffffffffffffffffff1916908160001a905350600060018460026110c79190611812565b6110d191906117bc565b90505b6001811115611171577f3031323334353637383961626364656600000000000000000000000000000000600f86166010811061111357611112611a7a565b5b1a60f81b82828151811061112a57611129611a7a565b5b60200101907effffffffffffffffffffffffffffffffffffffffffffffffffffffffffffff1916908160001a905350600485901c94508061116a90611960565b90506110d4565b50600084146111b5576040517f08c379a00000000000000000000000000000000000000000000000000000000081526004016111ac906116e4565b60405180910390fd5b8091505092915050565b600080836001016000848152602001908152602001600020541415905092915050565b60006111f56111f084611764565b61173f565b90508281526020810184848401111561121157611210611add565b5b61121c84828561191e565b509392505050565b60008135905061123381611bc7565b92915050565b60008135905061124881611bde565b92915050565b60008135905061125d81611bf5565b92915050565b600082601f83011261127857611277611ad8565b5b81356112888482602086016111e2565b91505092915050565b6000813590506112a081611c0c565b92915050565b6000602082840312156112bc576112bb611ae7565b5b60006112ca84828501611224565b91505092915050565b600080604083850312156112ea576112e9611ae7565b5b60006112f885828601611224565b925050602083013567ffffffffffffffff81111561131957611318611ae2565b5b61132585828601611263565b9150509250929050565b60008060006060848603121561134857611347611ae7565b5b600061135686828701611224565b935050602084013567ffffffffffffffff81111561137757611376611ae2565b5b61138386828701611263565b925050604061139486828701611291565b9150509250925092565b6000602082840312156113b4576113b3611ae7565b5b60006113c284828501611239565b91505092915050565b600080604083850312156113e2576113e1611ae7565b5b60006113f085828601611239565b925050602061140185828601611224565b9150509250929050565b6000806040838503121561142257611421611ae7565b5b600061143085828601611239565b925050602061144185828601611291565b9150509250929050565b60006020828403121561146157611460611ae7565b5b600061146f8482850161124e565b91505092915050565b60006020828403121561148e5761148d611ae7565b5b600082013567ffffffffffffffff8111156114ac576114ab611ae2565b5b6114b884828501611263565b91505092915050565b6000602082840312156114d7576114d6611ae7565b5b60006114e584828501611291565b91505092915050565b6114f7816118a0565b82525050565b611506816118b2565b82525050565b611515816118be565b82525050565b600061152682611795565b61153081856117a0565b935061154081856020860161192d565b61154981611aec565b840191505092915050565b600061155f82611795565b61156981856117b1565b935061157981856020860161192d565b80840191505092915050565b60006115926020836117a0565b915061159d82611afd565b602082019050919050565b60006115b56017836117b1565b91506115c082611b26565b601782019050919050565b60006115d86011836117b1565b91506115e382611b4f565b601182019050919050565b60006115fb602f836117a0565b915061160682611b78565b604082019050919050565b61161a81611914565b82525050565b600061162c8284611554565b915081905092915050565b6000611642826115a8565b915061164e8285611554565b9150611659826115cb565b91506116658284611554565b91508190509392505050565b600060208201905061168660008301846114ee565b92915050565b60006020820190506116a160008301846114fd565b92915050565b60006020820190506116bc600083018461150c565b92915050565b600060208201905081810360008301526116dc818461151b565b905092915050565b600060208201905081810360008301526116fd81611585565b9050919050565b6000602082019050818103600083015261171d816115ee565b9050919050565b60006020820190506117396000830184611611565b92915050565b600061174961175a565b905061175582826119bc565b919050565b6000604051905090565b600067ffffffffffffffff82111561177f5761177e611aa9565b5b61178882611aec565b9050602081019050919050565b600081519050919050565b600082825260208201905092915050565b600081905092915050565b60006117c782611914565b91506117d283611914565b9250827fffffffffffffffffffffffffffffffffffffffffffffffffffffffffffffffff03821115611807576118066119ed565b5b828201905092915050565b600061181d82611914565b915061182883611914565b9250817fffffffffffffffffffffffffffffffffffffffffffffffffffffffffffffffff0483118215151615611861576118606119ed565b5b828202905092915050565b600061187782611914565b915061188283611914565b925082821015611895576118946119ed565b5b828203905092915050565b60006118ab826118f4565b9050919050565b60008115159050919050565b6000819050919050565b60007fffffffff0000000000000000000000000000000000000000000000000000000082169050919050565b600073ffffffffffffffffffffffffffffffffffffffff82169050919050565b6000819050919050565b82818337600083830152505050565b60005b8381101561194b578082015181840152602081019050611930565b8381111561195a576000848401525b50505050565b600061196b82611914565b9150600082141561197f5761197e6119ed565b5b600182039050919050565b600060028204905060018216806119a257607f821691505b602082108114156119b6576119b5611a1c565b5b50919050565b6119c582611aec565b810181811067ffffffffffffffff821117156119e4576119e3611aa9565b5b80604052505050565b7f4e487b7100000000000000000000000000000000000000000000000000000000600052601160045260246000fd5b7f4e487b7100000000000000000000000000000000000000000000000000000000600052602260045260246000fd5b7f4e487b7100000000000000000000000000000000000000000000000000000000600052603160045260246000fd5b7f4e487b7100000000000000000000000000000000000000000000000000000000600052603260045260246000fd5b7f4e487b7100000000000000000000000000000000000000000000000000000000600052604160045260246000fd5b600080fd5b600080fd5b600080fd5b600080fd5b6000601f19601f8301169050919050565b7f537472696e67733a20686578206c656e67746820696e73756666696369656e74600082015250565b7f416363657373436f6e74726f6c3a206163636f756e7420000000000000000000600082015250565b7f206973206d697373696e6720726f6c6520000000000000000000000000000000600082015250565b7f416363657373436f6e74726f6c3a2063616e206f6e6c792072656e6f756e636560008201527f20726f6c657320666f722073656c660000000000000000000000000000000000602082015250565b611bd0816118a0565b8114611bdb57600080fd5b50565b611be7816118be565b8114611bf257600080fd5b50565b611bfe816118c8565b8114611c0957600080fd5b50565b611c1581611914565b8114611c2057600080fd5b5056fea26469706673582212201543555250042d30325b4d54cd9086ca359d34b6ce072dc77f202871ae91817c64736f6c63430008070033",
  "immutableReferences": {},
  "source": "pragma solidity 0.8.7;\n\nimport \"./Storage.sol\";\n\n/*\n* @dev This contract is accessed by Proxy contract \n* and can be updated if the owner wishes so\n* This contract contains the logic of a function\n*/\n\ncontract Function is Storage{\n\nmodifier onlyOwner () {\n    require(msg.sender == owner, 'You are not the owner');\n    _;\n}\n\nconstructor () public {\n    require(!_initialized);\n    _initialized = true;\n    initialize(msg.sender);\n}\n\nfunction initialize(address _owner) public {\nowner = _owner;\n}\n\nfunction getTheNumber(address proxyAddress, string memory _variable) public view returns(uint256){\nreturn uintStorage[_variable];\n}\n\nfunction setTheNumber(address proxyAddress, string memory _variable, uint256 toSet) public {\n    uintStorage[_variable] = toSet;\n}\n\n}",
  "sourcePath": "/Users/dakshjoshi/Desktop/Blockchain/Ethereum/upgradeable-contracts/contracts/Function.sol",
  "compiler": {
    "name": "solc",
    "version": "0.8.7+commit.e28d00a7.Emscripten.clang"
  },
  "schemaVersion": "3.4.3",
  "updatedAt": "2021-08-31T07:17:32.555Z",
  "networkType": "ethereum",
  "devdoc": {
    "kind": "dev",
    "methods": {
      "getRoleAdmin(bytes32)": {
        "details": "Returns the admin role that controls `role`. See {grantRole} and {revokeRole}. To change a role's admin, use {_setRoleAdmin}."
      },
      "getRoleMember(bytes32,uint256)": {
        "details": "Returns one of the accounts that have `role`. `index` must be a value between 0 and {getRoleMemberCount}, non-inclusive. Role bearers are not sorted in any particular way, and their ordering may change at any point. WARNING: When using {getRoleMember} and {getRoleMemberCount}, make sure you perform all queries on the same block. See the following https://forum.openzeppelin.com/t/iterating-over-elements-on-enumerableset-in-openzeppelin-contracts/2296[forum post] for more information."
      },
      "getRoleMemberCount(bytes32)": {
        "details": "Returns the number of accounts that have `role`. Can be used together with {getRoleMember} to enumerate all bearers of a role."
      },
      "grantRole(bytes32,address)": {
        "details": "Overload {grantRole} to track enumerable memberships"
      },
      "hasRole(bytes32,address)": {
        "details": "Returns `true` if `account` has been granted `role`."
      },
      "renounceRole(bytes32,address)": {
        "details": "Overload {renounceRole} to track enumerable memberships"
      },
      "revokeRole(bytes32,address)": {
        "details": "Overload {revokeRole} to track enumerable memberships"
      },
      "supportsInterface(bytes4)": {
        "details": "See {IERC165-supportsInterface}."
      }
    },
    "version": 1
  },
  "userdoc": {
    "kind": "user",
    "methods": {},
    "version": 1
  }
}