{
  "contractName": "Handler",
  "abi": [
    {
      "inputs": [],
      "stateMutability": "nonpayable",
      "type": "constructor"
    },
    {
      "anonymous": false,
      "inputs": [
        {
          "indexed": true,
          "internalType": "bytes32",
          "name": "role",
          "type": "bytes32"
        },
        {
          "indexed": true,
          "internalType": "bytes32",
          "name": "previousAdminRole",
          "type": "bytes32"
        },
        {
          "indexed": true,
          "internalType": "bytes32",
          "name": "newAdminRole",
          "type": "bytes32"
        }
      ],
      "name": "RoleAdminChanged",
      "type": "event"
    },
    {
      "anonymous": false,
      "inputs": [
        {
          "indexed": true,
          "internalType": "bytes32",
          "name": "role",
          "type": "bytes32"
        },
        {
          "indexed": true,
          "internalType": "address",
          "name": "account",
          "type": "address"
        },
        {
          "indexed": true,
          "internalType": "address",
          "name": "sender",
          "type": "address"
        }
      ],
      "name": "RoleGranted",
      "type": "event"
    },
    {
      "anonymous": false,
      "inputs": [
        {
          "indexed": true,
          "internalType": "bytes32",
          "name": "role",
          "type": "bytes32"
        },
        {
          "indexed": true,
          "internalType": "address",
          "name": "account",
          "type": "address"
        },
        {
          "indexed": true,
          "internalType": "address",
          "name": "sender",
          "type": "address"
        }
      ],
      "name": "RoleRevoked",
      "type": "event"
    },
    {
      "inputs": [],
      "name": "DEFAULT_ADMIN_ROLE",
      "outputs": [
        {
          "internalType": "bytes32",
          "name": "",
          "type": "bytes32"
        }
      ],
      "stateMutability": "view",
      "type": "function"
    },
    {
      "inputs": [],
      "name": "EMERGENCY_OFFICERS",
      "outputs": [
        {
          "internalType": "bytes32",
          "name": "",
          "type": "bytes32"
        }
      ],
      "stateMutability": "view",
      "type": "function"
    },
    {
      "inputs": [],
      "name": "MANAGER_ROLE",
      "outputs": [
        {
          "internalType": "bytes32",
          "name": "",
          "type": "bytes32"
        }
      ],
      "stateMutability": "view",
      "type": "function"
    },
    {
      "inputs": [],
      "name": "PARTNERS",
      "outputs": [
        {
          "internalType": "bytes32",
          "name": "",
          "type": "bytes32"
        }
      ],
      "stateMutability": "view",
      "type": "function"
    },
    {
      "inputs": [],
      "name": "UPGRADE_OFFICER",
      "outputs": [
        {
          "internalType": "bytes32",
          "name": "",
          "type": "bytes32"
        }
      ],
      "stateMutability": "view",
      "type": "function"
    },
    {
      "inputs": [
        {
          "internalType": "bytes32",
          "name": "role",
          "type": "bytes32"
        }
      ],
      "name": "getRoleAdmin",
      "outputs": [
        {
          "internalType": "bytes32",
          "name": "",
          "type": "bytes32"
        }
      ],
      "stateMutability": "view",
      "type": "function"
    },
    {
      "inputs": [
        {
          "internalType": "bytes32",
          "name": "role",
          "type": "bytes32"
        },
        {
          "internalType": "uint256",
          "name": "index",
          "type": "uint256"
        }
      ],
      "name": "getRoleMember",
      "outputs": [
        {
          "internalType": "address",
          "name": "",
          "type": "address"
        }
      ],
      "stateMutability": "view",
      "type": "function"
    },
    {
      "inputs": [
        {
          "internalType": "bytes32",
          "name": "role",
          "type": "bytes32"
        }
      ],
      "name": "getRoleMemberCount",
      "outputs": [
        {
          "internalType": "uint256",
          "name": "",
          "type": "uint256"
        }
      ],
      "stateMutability": "view",
      "type": "function"
    },
    {
      "inputs": [
        {
          "internalType": "bytes32",
          "name": "role",
          "type": "bytes32"
        },
        {
          "internalType": "address",
          "name": "account",
          "type": "address"
        }
      ],
      "name": "grantRole",
      "outputs": [],
      "stateMutability": "nonpayable",
      "type": "function"
    },
    {
      "inputs": [
        {
          "internalType": "bytes32",
          "name": "role",
          "type": "bytes32"
        },
        {
          "internalType": "address",
          "name": "account",
          "type": "address"
        }
      ],
      "name": "hasRole",
      "outputs": [
        {
          "internalType": "bool",
          "name": "",
          "type": "bool"
        }
      ],
      "stateMutability": "view",
      "type": "function"
    },
    {
      "inputs": [
        {
          "internalType": "bytes32",
          "name": "role",
          "type": "bytes32"
        },
        {
          "internalType": "address",
          "name": "account",
          "type": "address"
        }
      ],
      "name": "renounceRole",
      "outputs": [],
      "stateMutability": "nonpayable",
      "type": "function"
    },
    {
      "inputs": [
        {
          "internalType": "bytes32",
          "name": "role",
          "type": "bytes32"
        },
        {
          "internalType": "address",
          "name": "account",
          "type": "address"
        }
      ],
      "name": "revokeRole",
      "outputs": [],
      "stateMutability": "nonpayable",
      "type": "function"
    },
    {
      "inputs": [
        {
          "internalType": "bytes4",
          "name": "interfaceId",
          "type": "bytes4"
        }
      ],
      "name": "supportsInterface",
      "outputs": [
        {
          "internalType": "bool",
          "name": "",
          "type": "bool"
        }
      ],
      "stateMutability": "view",
      "type": "function"
    }
  ],
  "bytecode": "0x60806040523480156200001157600080fd5b5033600260006101000a81548173ffffffffffffffffffffffffffffffffffffffff021916908373ffffffffffffffffffffffffffffffffffffffff160217905550620000776000801b6200006b6200018160201b60201c565b6200018960201b60201c565b620000b87f8a383c952fa3b6cf68c809af9e47ea2531b95c56f330357f533bebcc3fed7ca3620000ac6200018160201b60201c565b6200018960201b60201c565b620000f97f20e9126760e04b3666d05c0273d5d5e40a45f7374a7c5a78aaab084e004cd20b620000ed6200018160201b60201c565b6200018960201b60201c565b6200013a7f94d356c6a55eaf8799345c99aff299019cbf14e68cc4c78e9f854ac57c94033c6200012e6200018160201b60201c565b6200018960201b60201c565b6200017b7f3c8423ff9fe65335563f5616901f1459e02fafa085751c8aaf5f91b0b00698236200016f6200018160201b60201c565b6200018960201b60201c565b62000417565b600033905090565b620001a08282620001d160201b620005371760201c565b620001cc8160016000858152602001908152602001600020620001e760201b620005451790919060201c565b505050565b620001e382826200021f60201b60201c565b5050565b600062000217836000018373ffffffffffffffffffffffffffffffffffffffff1660001b6200031060201b60201c565b905092915050565b6200023182826200038a60201b60201c565b6200030c57600160008084815260200190815260200160002060000160008373ffffffffffffffffffffffffffffffffffffffff1673ffffffffffffffffffffffffffffffffffffffff16815260200190815260200160002060006101000a81548160ff021916908315150217905550620002b16200018160201b60201c565b73ffffffffffffffffffffffffffffffffffffffff168173ffffffffffffffffffffffffffffffffffffffff16837f2f8788117e7eff1d82e926ec794901d17c78024a50270940304540a733656f0d60405160405180910390a45b5050565b6000620003248383620003f460201b60201c565b6200037f57826000018290806001815401808255809150506001900390600052602060002001600090919091909150558260000180549050836001016000848152602001908152602001600020819055506001905062000384565b600090505b92915050565b600080600084815260200190815260200160002060000160008373ffffffffffffffffffffffffffffffffffffffff1673ffffffffffffffffffffffffffffffffffffffff16815260200190815260200160002060009054906101000a900460ff16905092915050565b600080836001016000848152602001908152602001600020541415905092915050565b61158e80620004276000396000f3fe608060405234801561001057600080fd5b50600436106100cf5760003560e01c806394b91f061161008c578063d547741f11610066578063d547741f14610238578063e5bd74f814610254578063ec87621c14610272578063ffa3f38f14610290576100cf565b806394b91f06146101cc578063a217fddf146101ea578063ca15c87314610208576100cf565b806301ffc9a7146100d4578063248a9ca3146101045780632f2ff15d1461013457806336568abe146101505780639010d07c1461016c57806391d148541461019c575b600080fd5b6100ee60048036038101906100e99190610f13565b6102ae565b6040516100fb91906110c7565b60405180910390f35b61011e60048036038101906101199190610e66565b610328565b60405161012b91906110e2565b60405180910390f35b61014e60048036038101906101499190610e93565b610347565b005b61016a60048036038101906101659190610e93565b61037b565b005b61018660048036038101906101819190610ed3565b6103af565b60405161019391906110ac565b60405180910390f35b6101b660048036038101906101b19190610e93565b6103de565b6040516101c391906110c7565b60405180910390f35b6101d4610448565b6040516101e191906110e2565b60405180910390f35b6101f261046c565b6040516101ff91906110e2565b60405180910390f35b610222600480360381019061021d9190610e66565b610473565b60405161022f919061115f565b60405180910390f35b610252600480360381019061024d9190610e93565b610497565b005b61025c6104cb565b60405161026991906110e2565b60405180910390f35b61027a6104ef565b60405161028791906110e2565b60405180910390f35b610298610513565b6040516102a591906110e2565b60405180910390f35b60007f5a05180f000000000000000000000000000000000000000000000000000000007bffffffffffffffffffffffffffffffffffffffffffffffffffffffff1916827bffffffffffffffffffffffffffffffffffffffffffffffffffffffff19161480610321575061032082610575565b5b9050919050565b6000806000838152602001908152602001600020600101549050919050565b61035182826105ef565b610376816001600085815260200190815260200160002061054590919063ffffffff16565b505050565b6103858282610618565b6103aa816001600085815260200190815260200160002061069b90919063ffffffff16565b505050565b60006103d682600160008681526020019081526020016000206106cb90919063ffffffff16565b905092915050565b600080600084815260200190815260200160002060000160008373ffffffffffffffffffffffffffffffffffffffff1673ffffffffffffffffffffffffffffffffffffffff16815260200190815260200160002060009054906101000a900460ff16905092915050565b7f3c8423ff9fe65335563f5616901f1459e02fafa085751c8aaf5f91b0b006982381565b6000801b81565b6000610490600160008481526020019081526020016000206106e5565b9050919050565b6104a182826106fa565b6104c6816001600085815260200190815260200160002061069b90919063ffffffff16565b505050565b7f20e9126760e04b3666d05c0273d5d5e40a45f7374a7c5a78aaab084e004cd20b81565b7f8a383c952fa3b6cf68c809af9e47ea2531b95c56f330357f533bebcc3fed7ca381565b7f94d356c6a55eaf8799345c99aff299019cbf14e68cc4c78e9f854ac57c94033c81565b6105418282610723565b5050565b600061056d836000018373ffffffffffffffffffffffffffffffffffffffff1660001b610803565b905092915050565b60007f7965db0b000000000000000000000000000000000000000000000000000000007bffffffffffffffffffffffffffffffffffffffffffffffffffffffff1916827bffffffffffffffffffffffffffffffffffffffffffffffffffffffff191614806105e857506105e782610873565b5b9050919050565b6105f882610328565b610609816106046108dd565b6108e5565b6106138383610723565b505050565b6106206108dd565b73ffffffffffffffffffffffffffffffffffffffff168173ffffffffffffffffffffffffffffffffffffffff161461068d576040517f08c379a00000000000000000000000000000000000000000000000000000000081526004016106849061113f565b60405180910390fd5b6106978282610982565b5050565b60006106c3836000018373ffffffffffffffffffffffffffffffffffffffff1660001b610a63565b905092915050565b60006106da8360000183610b77565b60001c905092915050565b60006106f382600001610ba2565b9050919050565b61070382610328565b6107148161070f6108dd565b6108e5565b61071e8383610982565b505050565b61072d82826103de565b6107ff57600160008084815260200190815260200160002060000160008373ffffffffffffffffffffffffffffffffffffffff1673ffffffffffffffffffffffffffffffffffffffff16815260200190815260200160002060006101000a81548160ff0219169083151502179055506107a46108dd565b73ffffffffffffffffffffffffffffffffffffffff168173ffffffffffffffffffffffffffffffffffffffff16837f2f8788117e7eff1d82e926ec794901d17c78024a50270940304540a733656f0d60405160405180910390a45b5050565b600061080f8383610bb3565b61086857826000018290806001815401808255809150506001900390600052602060002001600090919091909150558260000180549050836001016000848152602001908152602001600020819055506001905061086d565b600090505b92915050565b60007f01ffc9a7000000000000000000000000000000000000000000000000000000007bffffffffffffffffffffffffffffffffffffffffffffffffffffffff1916827bffffffffffffffffffffffffffffffffffffffffffffffffffffffff1916149050919050565b600033905090565b6108ef82826103de565b61097e576109148173ffffffffffffffffffffffffffffffffffffffff166014610bd6565b6109228360001c6020610bd6565b604051602001610933929190611072565b6040516020818303038152906040526040517f08c379a000000000000000000000000000000000000000000000000000000000815260040161097591906110fd565b60405180910390fd5b5050565b61098c82826103de565b15610a5f57600080600084815260200190815260200160002060000160008373ffffffffffffffffffffffffffffffffffffffff1673ffffffffffffffffffffffffffffffffffffffff16815260200190815260200160002060006101000a81548160ff021916908315150217905550610a046108dd565b73ffffffffffffffffffffffffffffffffffffffff168173ffffffffffffffffffffffffffffffffffffffff16837ff6391f5c32d9c69d2a47ea670b442974b53935d1edc7fd64eb21e047a839171b60405160405180910390a45b5050565b60008083600101600084815260200190815260200160002054905060008114610b6b576000600182610a959190611251565b9050600060018660000180549050610aad9190611251565b9050818114610b1c576000866000018281548110610ace57610acd6113be565b5b9060005260206000200154905080876000018481548110610af257610af16113be565b5b90600052602060002001819055508387600101600083815260200190815260200160002081905550505b85600001805480610b3057610b2f61138f565b5b600190038181906000526020600020016000905590558560010160008681526020019081526020016000206000905560019350505050610b71565b60009150505b92915050565b6000826000018281548110610b8f57610b8e6113be565b5b9060005260206000200154905092915050565b600081600001805490509050919050565b600080836001016000848152602001908152602001600020541415905092915050565b606060006002836002610be991906111f7565b610bf391906111a1565b67ffffffffffffffff811115610c0c57610c0b6113ed565b5b6040519080825280601f01601f191660200182016040528015610c3e5781602001600182028036833780820191505090505b5090507f300000000000000000000000000000000000000000000000000000000000000081600081518110610c7657610c756113be565b5b60200101907effffffffffffffffffffffffffffffffffffffffffffffffffffffffffffff1916908160001a9053507f780000000000000000000000000000000000000000000000000000000000000081600181518110610cda57610cd96113be565b5b60200101907effffffffffffffffffffffffffffffffffffffffffffffffffffffffffffff1916908160001a90535060006001846002610d1a91906111f7565b610d2491906111a1565b90505b6001811115610dc4577f3031323334353637383961626364656600000000000000000000000000000000600f861660108110610d6657610d656113be565b5b1a60f81b828281518110610d7d57610d7c6113be565b5b60200101907effffffffffffffffffffffffffffffffffffffffffffffffffffffffffffff1916908160001a905350600485901c945080610dbd90611336565b9050610d27565b5060008414610e08576040517f08c379a0000000000000000000000000000000000000000000000000000000008152600401610dff9061111f565b60405180910390fd5b8091505092915050565b600081359050610e21816114fc565b92915050565b600081359050610e3681611513565b92915050565b600081359050610e4b8161152a565b92915050565b600081359050610e6081611541565b92915050565b600060208284031215610e7c57610e7b61141c565b5b6000610e8a84828501610e27565b91505092915050565b60008060408385031215610eaa57610ea961141c565b5b6000610eb885828601610e27565b9250506020610ec985828601610e12565b9150509250929050565b60008060408385031215610eea57610ee961141c565b5b6000610ef885828601610e27565b9250506020610f0985828601610e51565b9150509250929050565b600060208284031215610f2957610f2861141c565b5b6000610f3784828501610e3c565b91505092915050565b610f4981611285565b82525050565b610f5881611297565b82525050565b610f67816112a3565b82525050565b6000610f788261117a565b610f828185611185565b9350610f92818560208601611303565b610f9b81611421565b840191505092915050565b6000610fb18261117a565b610fbb8185611196565b9350610fcb818560208601611303565b80840191505092915050565b6000610fe4602083611185565b9150610fef82611432565b602082019050919050565b6000611007601783611196565b91506110128261145b565b601782019050919050565b600061102a601183611196565b915061103582611484565b601182019050919050565b600061104d602f83611185565b9150611058826114ad565b604082019050919050565b61106c816112f9565b82525050565b600061107d82610ffa565b91506110898285610fa6565b91506110948261101d565b91506110a08284610fa6565b91508190509392505050565b60006020820190506110c16000830184610f40565b92915050565b60006020820190506110dc6000830184610f4f565b92915050565b60006020820190506110f76000830184610f5e565b92915050565b600060208201905081810360008301526111178184610f6d565b905092915050565b6000602082019050818103600083015261113881610fd7565b9050919050565b6000602082019050818103600083015261115881611040565b9050919050565b60006020820190506111746000830184611063565b92915050565b600081519050919050565b600082825260208201905092915050565b600081905092915050565b60006111ac826112f9565b91506111b7836112f9565b9250827fffffffffffffffffffffffffffffffffffffffffffffffffffffffffffffffff038211156111ec576111eb611360565b5b828201905092915050565b6000611202826112f9565b915061120d836112f9565b9250817fffffffffffffffffffffffffffffffffffffffffffffffffffffffffffffffff048311821515161561124657611245611360565b5b828202905092915050565b600061125c826112f9565b9150611267836112f9565b92508282101561127a57611279611360565b5b828203905092915050565b6000611290826112d9565b9050919050565b60008115159050919050565b6000819050919050565b60007fffffffff0000000000000000000000000000000000000000000000000000000082169050919050565b600073ffffffffffffffffffffffffffffffffffffffff82169050919050565b6000819050919050565b60005b83811015611321578082015181840152602081019050611306565b83811115611330576000848401525b50505050565b6000611341826112f9565b9150600082141561135557611354611360565b5b600182039050919050565b7f4e487b7100000000000000000000000000000000000000000000000000000000600052601160045260246000fd5b7f4e487b7100000000000000000000000000000000000000000000000000000000600052603160045260246000fd5b7f4e487b7100000000000000000000000000000000000000000000000000000000600052603260045260246000fd5b7f4e487b7100000000000000000000000000000000000000000000000000000000600052604160045260246000fd5b600080fd5b6000601f19601f8301169050919050565b7f537472696e67733a20686578206c656e67746820696e73756666696369656e74600082015250565b7f416363657373436f6e74726f6c3a206163636f756e7420000000000000000000600082015250565b7f206973206d697373696e6720726f6c6520000000000000000000000000000000600082015250565b7f416363657373436f6e74726f6c3a2063616e206f6e6c792072656e6f756e636560008201527f20726f6c657320666f722073656c660000000000000000000000000000000000602082015250565b61150581611285565b811461151057600080fd5b50565b61151c816112a3565b811461152757600080fd5b50565b611533816112ad565b811461153e57600080fd5b50565b61154a816112f9565b811461155557600080fd5b5056fea2646970667358221220c875d7695747c3bec4e6fd1ef942eafde37e66aeb26f8936dc3dae6c12b992b064736f6c63430008070033",
  "immutableReferences": {},
  "source": "pragma solidity 0.8.7;\n\nimport \"@openzeppelin/contracts/access/AccessControlEnumerable.sol\";\n\ncontract Handler is AccessControlEnumerable{\n\naddress owner;\n\nbytes32 public constant MANAGER_ROLE = keccak256(\"MANAGERS\");\nbytes32 public constant UPGRADE_OFFICER = keccak256(\"UPGRADE_OFFICER\");\nbytes32 public constant EMERGENCY_OFFICERS = keccak256(\"EMERGENCY_OFFICERS\");\nbytes32 public constant PARTNERS = keccak256(\"PARTNERS\");\n\nconstructor() public {\n    owner = msg.sender;\n    //updContract = functionContract;\n\n    _setupRole(DEFAULT_ADMIN_ROLE, _msgSender());\n\n    _setupRole(MANAGER_ROLE, _msgSender());\n    _setupRole(UPGRADE_OFFICER, _msgSender());\n    _setupRole(EMERGENCY_OFFICERS, _msgSender());\n    _setupRole(PARTNERS, _msgSender());\n\n}\n\n}",
  "sourcePath": "/Users/dakshjoshi/Desktop/Blockchain/Ethereum/upgradeable-contracts/contracts/Handler.sol",
  "compiler": {
    "name": "solc",
    "version": "0.8.7+commit.e28d00a7.Emscripten.clang"
  },
  "schemaVersion": "3.4.3",
  "updatedAt": "2021-08-31T06:52:34.606Z",
  "devdoc": {
    "kind": "dev",
    "methods": {
      "getRoleAdmin(bytes32)": {
        "details": "Returns the admin role that controls `role`. See {grantRole} and {revokeRole}. To change a role's admin, use {_setRoleAdmin}."
      },
      "getRoleMember(bytes32,uint256)": {
        "details": "Returns one of the accounts that have `role`. `index` must be a value between 0 and {getRoleMemberCount}, non-inclusive. Role bearers are not sorted in any particular way, and their ordering may change at any point. WARNING: When using {getRoleMember} and {getRoleMemberCount}, make sure you perform all queries on the same block. See the following https://forum.openzeppelin.com/t/iterating-over-elements-on-enumerableset-in-openzeppelin-contracts/2296[forum post] for more information."
      },
      "getRoleMemberCount(bytes32)": {
        "details": "Returns the number of accounts that have `role`. Can be used together with {getRoleMember} to enumerate all bearers of a role."
      },
      "grantRole(bytes32,address)": {
        "details": "Overload {grantRole} to track enumerable memberships"
      },
      "hasRole(bytes32,address)": {
        "details": "Returns `true` if `account` has been granted `role`."
      },
      "renounceRole(bytes32,address)": {
        "details": "Overload {renounceRole} to track enumerable memberships"
      },
      "revokeRole(bytes32,address)": {
        "details": "Overload {revokeRole} to track enumerable memberships"
      },
      "supportsInterface(bytes4)": {
        "details": "See {IERC165-supportsInterface}."
      }
    },
    "version": 1
  },
  "userdoc": {
    "kind": "user",
    "methods": {},
    "version": 1
  }
}