{
  "contractName": "LegacyProxy",
  "abi": [
    {
      "inputs": [],
      "name": "functionToCall",
      "outputs": [
        {
          "internalType": "string",
          "name": "",
          "type": "string"
        }
      ],
      "stateMutability": "view",
      "type": "function"
    },
    {
      "inputs": [],
      "name": "number",
      "outputs": [
        {
          "internalType": "uint256",
          "name": "",
          "type": "uint256"
        }
      ],
      "stateMutability": "view",
      "type": "function"
    },
    {
      "inputs": [],
      "name": "updContract",
      "outputs": [
        {
          "internalType": "address",
          "name": "",
          "type": "address"
        }
      ],
      "stateMutability": "view",
      "type": "function"
    },
    {
      "inputs": [
        {
          "internalType": "address",
          "name": "newAddress",
          "type": "address"
        }
      ],
      "name": "updateContract",
      "outputs": [],
      "stateMutability": "nonpayable",
      "type": "function"
    },
    {
      "inputs": [],
      "name": "getTheNumber",
      "outputs": [
        {
          "internalType": "bytes",
          "name": "",
          "type": "bytes"
        }
      ],
      "stateMutability": "nonpayable",
      "type": "function"
    },
    {
      "inputs": [
        {
          "internalType": "string",
          "name": "_newFunction",
          "type": "string"
        }
      ],
      "name": "setFunction",
      "outputs": [],
      "stateMutability": "nonpayable",
      "type": "function"
    },
    {
      "inputs": [
        {
          "internalType": "uint256",
          "name": "toSet",
          "type": "uint256"
        }
      ],
      "name": "setTheNumber",
      "outputs": [
        {
          "internalType": "bool",
          "name": "",
          "type": "bool"
        }
      ],
      "stateMutability": "nonpayable",
      "type": "function"
    }
  ],
  "bytecode": "0x608060405234801561001057600080fd5b50610a86806100206000396000f3fe608060405234801561001057600080fd5b506004361061007d5760003560e01c8063b4a437491161005b578063b4a43749146100ee578063e14d9fa91461010c578063e3db17b814610128578063f5c8312f146101445761007d565b80630105914c1461008257806324beb89d146100b25780638381f58a146100d0575b600080fd5b61009c60048036038101906100979190610670565b610162565b6040516100a9919061079f565b60405180910390f35b6100ba61028a565b6040516100c791906107dc565b60405180910390f35b6100d8610318565b6040516100e591906107fe565b60405180910390f35b6100f661031e565b60405161010391906107ba565b60405180910390f35b61012660048036038101906101219190610627565b610439565b005b610142600480360381019061013d91906105fa565b610453565b005b61014c610497565b6040516101599190610784565b60405180910390f35b6000806000600160009054906101000a900473ffffffffffffffffffffffffffffffffffffffff1673ffffffffffffffffffffffffffffffffffffffff16846040516024016101b191906107fe565b6040516020818303038152906040527f0105914c000000000000000000000000000000000000000000000000000000007bffffffffffffffffffffffffffffffffffffffffffffffffffffffff19166020820180517bffffffffffffffffffffffffffffffffffffffffffffffffffffffff838183161783525050505060405161023b919061076d565b600060405180830381855af49150503d8060008114610276576040519150601f19603f3d011682016040523d82523d6000602084013e61027b565b606091505b50915091508192505050919050565b600280546102979061093c565b80601f01602080910402602001604051908101604052809291908181526020018280546102c39061093c565b80156103105780601f106102e557610100808354040283529160200191610310565b820191906000526020600020905b8154815290600101906020018083116102f357829003601f168201915b505050505081565b60005481565b6060600080600160009054906101000a900473ffffffffffffffffffffffffffffffffffffffff1673ffffffffffffffffffffffffffffffffffffffff166040516024016040516020818303038152906040527ff2c9ecd8000000000000000000000000000000000000000000000000000000007bffffffffffffffffffffffffffffffffffffffffffffffffffffffff19166020820180517bffffffffffffffffffffffffffffffffffffffffffffffffffffffff83818316178352505050506040516103ec919061076d565b600060405180830381855af49150503d8060008114610427576040519150601f19603f3d011682016040523d82523d6000602084013e61042c565b606091505b5091509150809250505090565b806002908051906020019061044f9291906104bd565b5050565b80600160006101000a81548173ffffffffffffffffffffffffffffffffffffffff021916908373ffffffffffffffffffffffffffffffffffffffff16021790555050565b600160009054906101000a900473ffffffffffffffffffffffffffffffffffffffff1681565b8280546104c99061093c565b90600052602060002090601f0160209004810192826104eb5760008555610532565b82601f1061050457805160ff1916838001178555610532565b82800160010185558215610532579182015b82811115610531578251825591602001919060010190610516565b5b50905061053f9190610543565b5090565b5b8082111561055c576000816000905550600101610544565b5090565b600061057361056e8461083e565b610819565b90508281526020810184848401111561058f5761058e610a02565b5b61059a8482856108fa565b509392505050565b6000813590506105b181610a22565b92915050565b600082601f8301126105cc576105cb6109fd565b5b81356105dc848260208601610560565b91505092915050565b6000813590506105f481610a39565b92915050565b6000602082840312156106105761060f610a0c565b5b600061061e848285016105a2565b91505092915050565b60006020828403121561063d5761063c610a0c565b5b600082013567ffffffffffffffff81111561065b5761065a610a07565b5b610667848285016105b7565b91505092915050565b60006020828403121561068657610685610a0c565b5b6000610694848285016105e5565b91505092915050565b6106a6816108b2565b82525050565b6106b5816108c4565b82525050565b60006106c68261086f565b6106d08185610885565b93506106e0818560208601610909565b6106e981610a11565b840191505092915050565b60006106ff8261086f565b6107098185610896565b9350610719818560208601610909565b80840191505092915050565b60006107308261087a565b61073a81856108a1565b935061074a818560208601610909565b61075381610a11565b840191505092915050565b610767816108f0565b82525050565b600061077982846106f4565b915081905092915050565b6000602082019050610799600083018461069d565b92915050565b60006020820190506107b460008301846106ac565b92915050565b600060208201905081810360008301526107d481846106bb565b905092915050565b600060208201905081810360008301526107f68184610725565b905092915050565b6000602082019050610813600083018461075e565b92915050565b6000610823610834565b905061082f828261096e565b919050565b6000604051905090565b600067ffffffffffffffff821115610859576108586109ce565b5b61086282610a11565b9050602081019050919050565b600081519050919050565b600081519050919050565b600082825260208201905092915050565b600081905092915050565b600082825260208201905092915050565b60006108bd826108d0565b9050919050565b60008115159050919050565b600073ffffffffffffffffffffffffffffffffffffffff82169050919050565b6000819050919050565b82818337600083830152505050565b60005b8381101561092757808201518184015260208101905061090c565b83811115610936576000848401525b50505050565b6000600282049050600182168061095457607f821691505b602082108114156109685761096761099f565b5b50919050565b61097782610a11565b810181811067ffffffffffffffff82111715610996576109956109ce565b5b80604052505050565b7f4e487b7100000000000000000000000000000000000000000000000000000000600052602260045260246000fd5b7f4e487b7100000000000000000000000000000000000000000000000000000000600052604160045260246000fd5b600080fd5b600080fd5b600080fd5b600080fd5b6000601f19601f8301169050919050565b610a2b816108b2565b8114610a3657600080fd5b50565b610a42816108f0565b8114610a4d57600080fd5b5056fea2646970667358221220883edc169c99961ca15ae3eec78aca839ed37af1a57d2dadeab72985ab5d4d7f64736f6c63430008070033",
  "immutableReferences": {},
  "source": "pragma solidity 0.8.7;\n\nimport \"./Storage.sol\";\n\n/*\n* @dev this contract is the main contract \n* with which the user will interact\n* it calls the Function contract which can be updated \n* by simply updating the new function contract address \n*/\n\ncontract LegacyProxy is LegacyStorage{\n\naddress public updContract;\nstring public functionToCall;\n/* constructor(address functionContract) {\n*     updContract = functionContract;\n}*/\n\nfunction updateContract(address newAddress) public {\n    updContract = newAddress;\n}\n\n\n\nfunction getTheNumber() public  returns(bytes memory){\n   (bool success, bytes memory data) = updContract.delegatecall(\n        abi.encodeWithSignature(\"getNumber()\")\n    );\n    return (data);\n}\n\nfunction setFunction(string memory _newFunction) public {\nfunctionToCall  = _newFunction;\n}\n\nfunction setTheNumber(uint256 toSet) public returns (bool){\n    (bool success, bytes memory data) = updContract.delegatecall(\n        abi.encodeWithSignature(\"setTheNumber(uint256)\", toSet)\n    );\n    return success;\n}\n\n}",
  "sourcePath": "/Users/dakshjoshi/Desktop/Blockchain/Ethereum/upgradeable-contracts/contracts/legacyMethods/Proxy.sol",
  "compiler": {
    "name": "solc",
    "version": "0.8.7+commit.e28d00a7.Emscripten.clang"
  },
  "schemaVersion": "3.4.3",
  "updatedAt": "2021-08-31T06:52:34.613Z",
  "devdoc": {
    "kind": "dev",
    "methods": {},
    "version": 1
  },
  "userdoc": {
    "kind": "user",
    "methods": {},
    "version": 1
  }
}