{
  "contractName": "LegacyStorage",
  "abi": [
    {
      "inputs": [],
      "name": "number",
      "outputs": [
        {
          "internalType": "uint256",
          "name": "",
          "type": "uint256"
        }
      ],
      "stateMutability": "view",
      "type": "function"
    }
  ],
  "bytecode": "0x6080604052348015600f57600080fd5b5060858061001e6000396000f3fe6080604052348015600f57600080fd5b506004361060285760003560e01c80638381f58a14602d575b600080fd5b60336049565b6040518082815260200191505060405180910390f35b6000548156fea2646970667358221220c52eb7ce73b9578e1f7f1dae99574da4d63dcffd5d08ded9897641588bf310dc64736f6c634300060c0033",
  "immutableReferences": {},
  "source": "pragma solidity 0.6.12;\n\n/*\n* @dev this contract is to set common \n* storage which will be inherited by both\n* proxy and Function contract\n*/\n\ncontract LegacyStorage {\n    uint256 public number;\n\n    function getNumber() internal view returns(uint256) {\nreturn number;\n    }\n    \n    function setNumber(uint256 _number) internal  {\n    number = _number;\n    }\n}",
  "sourcePath": "/Users/dakshjoshi/Desktop/Blockchain/Ethereum/upgradeable-contracts/contracts/legacyMethods/Storage.sol",
  "compiler": {
    "name": "solc",
    "version": "0.6.12+commit.27d51765.Emscripten.clang"
  },
  "schemaVersion": "3.4.3",
  "updatedAt": "2021-08-26T11:25:57.017Z",
  "devdoc": {
    "kind": "dev",
    "methods": {},
    "version": 1
  },
  "userdoc": {
    "kind": "user",
    "methods": {},
    "version": 1
  }
}