{
  "contractName": "LegacyProxy",
  "abi": [
    {
      "inputs": [],
      "name": "functionToCall",
      "outputs": [
        {
          "internalType": "string",
          "name": "",
          "type": "string"
        }
      ],
      "stateMutability": "view",
      "type": "function"
    },
    {
      "inputs": [],
      "name": "number",
      "outputs": [
        {
          "internalType": "uint256",
          "name": "",
          "type": "uint256"
        }
      ],
      "stateMutability": "view",
      "type": "function"
    },
    {
      "inputs": [],
      "name": "updContract",
      "outputs": [
        {
          "internalType": "address",
          "name": "",
          "type": "address"
        }
      ],
      "stateMutability": "view",
      "type": "function"
    },
    {
      "inputs": [
        {
          "internalType": "address",
          "name": "newAddress",
          "type": "address"
        }
      ],
      "name": "updateContract",
      "outputs": [],
      "stateMutability": "nonpayable",
      "type": "function"
    },
    {
      "inputs": [],
      "name": "getTheNumber",
      "outputs": [
        {
          "internalType": "bytes",
          "name": "",
          "type": "bytes"
        }
      ],
      "stateMutability": "nonpayable",
      "type": "function"
    },
    {
      "inputs": [
        {
          "internalType": "string",
          "name": "_newFunction",
          "type": "string"
        }
      ],
      "name": "setFunction",
      "outputs": [],
      "stateMutability": "nonpayable",
      "type": "function"
    },
    {
      "inputs": [
        {
          "internalType": "uint256",
          "name": "toSet",
          "type": "uint256"
        }
      ],
      "name": "setTheNumber",
      "outputs": [
        {
          "internalType": "bool",
          "name": "",
          "type": "bool"
        }
      ],
      "stateMutability": "nonpayable",
      "type": "function"
    }
  ],
  "bytecode": "0x608060405234801561001057600080fd5b506107f2806100206000396000f3fe608060405234801561001057600080fd5b506004361061007d5760003560e01c8063b4a437491161005b578063b4a4374914610167578063e14d9fa9146101ea578063e3db17b8146102a5578063f5c8312f146102e95761007d565b80630105914c1461008257806324beb89d146100c65780638381f58a14610149575b600080fd5b6100ae6004803603602081101561009857600080fd5b810190808035906020019092919050505061031d565b60405180821515815260200191505060405180910390f35b6100ce610490565b6040518080602001828103825283818151815260200191508051906020019080838360005b8381101561010e5780820151818401526020810190506100f3565b50505050905090810190601f16801561013b5780820380516001836020036101000a031916815260200191505b509250505060405180910390f35b61015161052e565b6040518082815260200191505060405180910390f35b61016f610534565b6040518080602001828103825283818151815260200191508051906020019080838360005b838110156101af578082015181840152602081019050610194565b50505050905090810190601f1680156101dc5780820380516001836020036101000a031916815260200191505b509250505060405180910390f35b6102a36004803603602081101561020057600080fd5b810190808035906020019064010000000081111561021d57600080fd5b82018360208201111561022f57600080fd5b8035906020019184600183028401116401000000008311171561025157600080fd5b91908080601f016020809104026020016040519081016040528093929190818152602001838380828437600081840152601f19601f82011690508083019250505050505050919291929050505061069b565b005b6102e7600480360360208110156102bb57600080fd5b81019080803573ffffffffffffffffffffffffffffffffffffffff1690602001909291905050506106b5565b005b6102f16106f9565b604051808273ffffffffffffffffffffffffffffffffffffffff16815260200191505060405180910390f35b6000806060600160009054906101000a900473ffffffffffffffffffffffffffffffffffffffff1673ffffffffffffffffffffffffffffffffffffffff1684604051602401808281526020019150506040516020818303038152906040527f0105914c000000000000000000000000000000000000000000000000000000007bffffffffffffffffffffffffffffffffffffffffffffffffffffffff19166020820180517bffffffffffffffffffffffffffffffffffffffffffffffffffffffff83818316178352505050506040518082805190602001908083835b6020831061041c57805182526020820191506020810190506020830392506103f9565b6001836020036101000a038019825116818451168082178552505050505050905001915050600060405180830381855af49150503d806000811461047c576040519150601f19603f3d011682016040523d82523d6000602084013e610481565b606091505b50915091508192505050919050565b60028054600181600116156101000203166002900480601f0160208091040260200160405190810160405280929190818152602001828054600181600116156101000203166002900480156105265780601f106104fb57610100808354040283529160200191610526565b820191906000526020600020905b81548152906001019060200180831161050957829003601f168201915b505050505081565b60005481565b606060006060600160009054906101000a900473ffffffffffffffffffffffffffffffffffffffff1673ffffffffffffffffffffffffffffffffffffffff166040516024016040516020818303038152906040527ff2c9ecd8000000000000000000000000000000000000000000000000000000007bffffffffffffffffffffffffffffffffffffffffffffffffffffffff19166020820180517bffffffffffffffffffffffffffffffffffffffffffffffffffffffff83818316178352505050506040518082805190602001908083835b602083106106295780518252602082019150602081019050602083039250610606565b6001836020036101000a038019825116818451168082178552505050505050905001915050600060405180830381855af49150503d8060008114610689576040519150601f19603f3d011682016040523d82523d6000602084013e61068e565b606091505b5091509150809250505090565b80600290805190602001906106b192919061071f565b5050565b80600160006101000a81548173ffffffffffffffffffffffffffffffffffffffff021916908373ffffffffffffffffffffffffffffffffffffffff16021790555050565b600160009054906101000a900473ffffffffffffffffffffffffffffffffffffffff1681565b828054600181600116156101000203166002900490600052602060002090601f016020900481019282601f1061076057805160ff191683800117855561078e565b8280016001018555821561078e579182015b8281111561078d578251825591602001919060010190610772565b5b50905061079b919061079f565b5090565b5b808211156107b85760008160009055506001016107a0565b509056fea2646970667358221220d159cce1a815e889e99f7c50f9925fa674703187d762c179daf682502b63a3e364736f6c634300060c0033",
  "immutableReferences": {},
  "source": "pragma solidity 0.6.12;\n\nimport \"./Storage.sol\";\n\n/*\n* @dev this contract is the main contract \n* with which the user will interact\n* it calls the Function contract which can be updated \n* by simply updating the new function contract address \n*/\n\ncontract LegacyProxy is LegacyStorage{\n\naddress public updContract;\nstring public functionToCall;\n/* constructor(address functionContract) {\n*     updContract = functionContract;\n}*/\n\nfunction updateContract(address newAddress) public {\n    updContract = newAddress;\n}\n\n\n\nfunction getTheNumber() public  returns(bytes memory){\n   (bool success, bytes memory data) = updContract.delegatecall(\n        abi.encodeWithSignature(\"getNumber()\")\n    );\n    return (data);\n}\n\nfunction setFunction(string memory _newFunction) public {\nfunctionToCall  = _newFunction;\n}\n\nfunction setTheNumber(uint256 toSet) public returns (bool){\n    (bool success, bytes memory data) = updContract.delegatecall(\n        abi.encodeWithSignature(\"setTheNumber(uint256)\", toSet)\n    );\n    return success;\n}\n\n}",
  "sourcePath": "/Users/dakshjoshi/Desktop/Blockchain/Ethereum/upgradeable-contracts/contracts/legacyMethods/Proxy.sol",
  "compiler": {
    "name": "solc",
    "version": "0.6.12+commit.27d51765.Emscripten.clang"
  },
  "schemaVersion": "3.4.3",
  "updatedAt": "2021-08-26T11:25:57.016Z",
  "devdoc": {
    "kind": "dev",
    "methods": {},
    "version": 1
  },
  "userdoc": {
    "kind": "user",
    "methods": {},
    "version": 1
  }
}