{
  "contractName": "P4L",
  "abi": [
    {
      "inputs": [],
      "stateMutability": "nonpayable",
      "type": "constructor"
    },
    {
      "anonymous": false,
      "inputs": [
        {
          "indexed": true,
          "internalType": "bytes32",
          "name": "role",
          "type": "bytes32"
        },
        {
          "indexed": true,
          "internalType": "bytes32",
          "name": "previousAdminRole",
          "type": "bytes32"
        },
        {
          "indexed": true,
          "internalType": "bytes32",
          "name": "newAdminRole",
          "type": "bytes32"
        }
      ],
      "name": "RoleAdminChanged",
      "type": "event"
    },
    {
      "anonymous": false,
      "inputs": [
        {
          "indexed": true,
          "internalType": "bytes32",
          "name": "role",
          "type": "bytes32"
        },
        {
          "indexed": true,
          "internalType": "address",
          "name": "account",
          "type": "address"
        },
        {
          "indexed": true,
          "internalType": "address",
          "name": "sender",
          "type": "address"
        }
      ],
      "name": "RoleGranted",
      "type": "event"
    },
    {
      "anonymous": false,
      "inputs": [
        {
          "indexed": true,
          "internalType": "bytes32",
          "name": "role",
          "type": "bytes32"
        },
        {
          "indexed": true,
          "internalType": "address",
          "name": "account",
          "type": "address"
        },
        {
          "indexed": true,
          "internalType": "address",
          "name": "sender",
          "type": "address"
        }
      ],
      "name": "RoleRevoked",
      "type": "event"
    },
    {
      "anonymous": false,
      "inputs": [
        {
          "indexed": false,
          "internalType": "address",
          "name": "_P4L",
          "type": "address"
        },
        {
          "indexed": false,
          "internalType": "address",
          "name": "_buyer",
          "type": "address"
        }
      ],
      "name": "insurancBought",
      "type": "event"
    },
    {
      "inputs": [],
      "name": "DEFAULT_ADMIN_ROLE",
      "outputs": [
        {
          "internalType": "bytes32",
          "name": "",
          "type": "bytes32"
        }
      ],
      "stateMutability": "view",
      "type": "function"
    },
    {
      "inputs": [],
      "name": "EMERGENCY_OFFICERS",
      "outputs": [
        {
          "internalType": "bytes32",
          "name": "",
          "type": "bytes32"
        }
      ],
      "stateMutability": "view",
      "type": "function"
    },
    {
      "inputs": [],
      "name": "MANAGER_ROLE",
      "outputs": [
        {
          "internalType": "bytes32",
          "name": "",
          "type": "bytes32"
        }
      ],
      "stateMutability": "view",
      "type": "function"
    },
    {
      "inputs": [],
      "name": "PARTNERS",
      "outputs": [
        {
          "internalType": "bytes32",
          "name": "",
          "type": "bytes32"
        }
      ],
      "stateMutability": "view",
      "type": "function"
    },
    {
      "inputs": [],
      "name": "UPGRADE_OFFICER",
      "outputs": [
        {
          "internalType": "bytes32",
          "name": "",
          "type": "bytes32"
        }
      ],
      "stateMutability": "view",
      "type": "function"
    },
    {
      "inputs": [],
      "name": "_initialized",
      "outputs": [
        {
          "internalType": "bool",
          "name": "",
          "type": "bool"
        }
      ],
      "stateMutability": "view",
      "type": "function"
    },
    {
      "inputs": [
        {
          "internalType": "uint256",
          "name": "",
          "type": "uint256"
        }
      ],
      "name": "buyers",
      "outputs": [
        {
          "internalType": "address",
          "name": "",
          "type": "address"
        }
      ],
      "stateMutability": "view",
      "type": "function"
    },
    {
      "inputs": [
        {
          "internalType": "address",
          "name": "",
          "type": "address"
        }
      ],
      "name": "functionalAddress",
      "outputs": [
        {
          "internalType": "bool",
          "name": "",
          "type": "bool"
        }
      ],
      "stateMutability": "view",
      "type": "function"
    },
    {
      "inputs": [
        {
          "internalType": "bytes32",
          "name": "role",
          "type": "bytes32"
        }
      ],
      "name": "getRoleAdmin",
      "outputs": [
        {
          "internalType": "bytes32",
          "name": "",
          "type": "bytes32"
        }
      ],
      "stateMutability": "view",
      "type": "function"
    },
    {
      "inputs": [
        {
          "internalType": "bytes32",
          "name": "role",
          "type": "bytes32"
        },
        {
          "internalType": "uint256",
          "name": "index",
          "type": "uint256"
        }
      ],
      "name": "getRoleMember",
      "outputs": [
        {
          "internalType": "address",
          "name": "",
          "type": "address"
        }
      ],
      "stateMutability": "view",
      "type": "function"
    },
    {
      "inputs": [
        {
          "internalType": "bytes32",
          "name": "role",
          "type": "bytes32"
        }
      ],
      "name": "getRoleMemberCount",
      "outputs": [
        {
          "internalType": "uint256",
          "name": "",
          "type": "uint256"
        }
      ],
      "stateMutability": "view",
      "type": "function"
    },
    {
      "inputs": [
        {
          "internalType": "bytes32",
          "name": "role",
          "type": "bytes32"
        },
        {
          "internalType": "address",
          "name": "account",
          "type": "address"
        }
      ],
      "name": "grantRole",
      "outputs": [],
      "stateMutability": "nonpayable",
      "type": "function"
    },
    {
      "inputs": [
        {
          "internalType": "bytes32",
          "name": "role",
          "type": "bytes32"
        },
        {
          "internalType": "address",
          "name": "account",
          "type": "address"
        }
      ],
      "name": "hasRole",
      "outputs": [
        {
          "internalType": "bool",
          "name": "",
          "type": "bool"
        }
      ],
      "stateMutability": "view",
      "type": "function"
    },
    {
      "inputs": [],
      "name": "owner",
      "outputs": [
        {
          "internalType": "address",
          "name": "",
          "type": "address"
        }
      ],
      "stateMutability": "view",
      "type": "function"
    },
    {
      "inputs": [
        {
          "internalType": "uint256",
          "name": "",
          "type": "uint256"
        }
      ],
      "name": "partnerList",
      "outputs": [
        {
          "internalType": "string",
          "name": "",
          "type": "string"
        }
      ],
      "stateMutability": "view",
      "type": "function"
    },
    {
      "inputs": [
        {
          "internalType": "bytes32",
          "name": "role",
          "type": "bytes32"
        },
        {
          "internalType": "address",
          "name": "account",
          "type": "address"
        }
      ],
      "name": "renounceRole",
      "outputs": [],
      "stateMutability": "nonpayable",
      "type": "function"
    },
    {
      "inputs": [
        {
          "internalType": "bytes32",
          "name": "role",
          "type": "bytes32"
        },
        {
          "internalType": "address",
          "name": "account",
          "type": "address"
        }
      ],
      "name": "revokeRole",
      "outputs": [],
      "stateMutability": "nonpayable",
      "type": "function"
    },
    {
      "inputs": [
        {
          "internalType": "bytes4",
          "name": "interfaceId",
          "type": "bytes4"
        }
      ],
      "name": "supportsInterface",
      "outputs": [
        {
          "internalType": "bool",
          "name": "",
          "type": "bool"
        }
      ],
      "stateMutability": "view",
      "type": "function"
    },
    {
      "inputs": [
        {
          "internalType": "string",
          "name": "",
          "type": "string"
        }
      ],
      "name": "uintStorage",
      "outputs": [
        {
          "internalType": "uint256",
          "name": "",
          "type": "uint256"
        }
      ],
      "stateMutability": "view",
      "type": "function"
    },
    {
      "inputs": [
        {
          "internalType": "address",
          "name": "_owner",
          "type": "address"
        }
      ],
      "name": "initialize",
      "outputs": [],
      "stateMutability": "nonpayable",
      "type": "function"
    },
    {
      "inputs": [
        {
          "internalType": "address",
          "name": "proxyAddress",
          "type": "address"
        },
        {
          "internalType": "string",
          "name": "_variable",
          "type": "string"
        }
      ],
      "name": "getTheNumber",
      "outputs": [
        {
          "internalType": "uint256",
          "name": "",
          "type": "uint256"
        }
      ],
      "stateMutability": "view",
      "type": "function"
    },
    {
      "inputs": [
        {
          "internalType": "address",
          "name": "proxyAddress",
          "type": "address"
        },
        {
          "internalType": "address",
          "name": "_buyer",
          "type": "address"
        },
        {
          "internalType": "string",
          "name": "_device",
          "type": "string"
        },
        {
          "internalType": "string",
          "name": "_company",
          "type": "string"
        },
        {
          "internalType": "uint256",
          "name": "_amountPaid",
          "type": "uint256"
        },
        {
          "internalType": "string",
          "name": "_currency",
          "type": "string"
        },
        {
          "internalType": "uint256",
          "name": "_period",
          "type": "uint256"
        }
      ],
      "name": "buyDeviceInsurance",
      "outputs": [],
      "stateMutability": "nonpayable",
      "type": "function"
    }
  ],
  "bytecode": "0x608060405234801561001057600080fd5b50600b60149054906101000a900460ff161561002b57600080fd5b6001600b60146101000a81548160ff0219169083151502179055506100553361005a60201b60201c565b61009e565b80600b60006101000a81548173ffffffffffffffffffffffffffffffffffffffff021916908373ffffffffffffffffffffffffffffffffffffffff16021790555050565b6120b8806100ad6000396000f3fe608060405234801561001057600080fd5b50600436106101425760003560e01c806391d14854116100b8578063d547741f1161007c578063d547741f146103af578063e5bd74f8146103cb578063ec87621c146103e9578063f13b874d14610407578063f2aa821814610437578063ffa3f38f1461046757610142565b806391d14854146102f757806394b91f0614610327578063a217fddf14610345578063c4d66de814610363578063ca15c8731461037f57610142565b806336568abe1161010a57806336568abe146102115780637fc4351f1461022d57806385ccf0641461025d57806386ab51be1461028d5780638da5cb5b146102a95780639010d07c146102c757610142565b806301ffc9a714610147578063147dbafa14610177578063248a9ca3146101a75780632f2ff15d146101d75780633072cf60146101f3575b600080fd5b610161600480360381019061015c919061175e565b610485565b60405161016e9190611a70565b60405180910390f35b610191600480360381019061018c9190611532565b6104ff565b60405161019e9190611a70565b60405180910390f35b6101c160048036038101906101bc91906116b1565b61051f565b6040516101ce9190611a8b565b60405180910390f35b6101f160048036038101906101ec91906116de565b61053e565b005b6101fb610572565b6040516102089190611a70565b60405180910390f35b61022b600480360381019061022691906116de565b610585565b005b61024760048036038101906102429190611655565b6105b9565b6040516102549190611b08565b60405180910390f35b6102776004803603810190610272919061178b565b6105e2565b6040516102849190611b08565b60405180910390f35b6102a760048036038101906102a2919061155f565b610610565b005b6102b161080b565b6040516102be9190611a2c565b60405180910390f35b6102e160048036038101906102dc919061171e565b610831565b6040516102ee9190611a2c565b60405180910390f35b610311600480360381019061030c91906116de565b610860565b60405161031e9190611a70565b60405180910390f35b61032f6108ca565b60405161033c9190611a8b565b60405180910390f35b61034d6108ee565b60405161035a9190611a8b565b60405180910390f35b61037d60048036038101906103789190611532565b6108f5565b005b610399600480360381019061039491906116b1565b610939565b6040516103a69190611b08565b60405180910390f35b6103c960048036038101906103c491906116de565b61095d565b005b6103d3610991565b6040516103e09190611a8b565b60405180910390f35b6103f16109b5565b6040516103fe9190611a8b565b60405180910390f35b610421600480360381019061041c91906117d4565b6109d9565b60405161042e9190611aa6565b60405180910390f35b610451600480360381019061044c91906117d4565b610a85565b60405161045e9190611a2c565b60405180910390f35b61046f610ac4565b60405161047c9190611a8b565b60405180910390f35b60007f5a05180f000000000000000000000000000000000000000000000000000000007bffffffffffffffffffffffffffffffffffffffffffffffffffffffff1916827bffffffffffffffffffffffffffffffffffffffffffffffffffffffff191614806104f857506104f782610ae8565b5b9050919050565b600a6020528060005260406000206000915054906101000a900460ff1681565b6000806000838152602001908152602001600020600101549050919050565b6105488282610b62565b61056d8160016000858152602001908152602001600020610b8b90919063ffffffff16565b505050565b600b60149054906101000a900460ff1681565b61058f8282610bbb565b6105b48160016000858152602001908152602001600020610c3e90919063ffffffff16565b505050565b60006002826040516105cb919061199c565b908152602001604051809103902054905092915050565b6002818051602081018201805184825260208301602085012081835280955050505050506000915090505481565b6000600660008873ffffffffffffffffffffffffffffffffffffffff1673ffffffffffffffffffffffffffffffffffffffff1681526020019081526020016000205490506000600560008973ffffffffffffffffffffffffffffffffffffffff1673ffffffffffffffffffffffffffffffffffffffff1681526020019081526020016000206000838152602001908152602001600020905086816000016040516106b9906119dd565b908152602001604051809103902090805190602001906106da9291906113cb565b5085816000016040516106ec906119b3565b9081526020016040518091039020908051906020019061070d9291906113cb565b50838160000160405161071f906119c8565b908152602001604051809103902090805190602001906107409291906113cb565b5084816002018190555042816003018190555060018160070160006101000a81548160ff021916908315150217905550610784600183610c6e90919063ffffffff16565b600660008a73ffffffffffffffffffffffffffffffffffffffff1673ffffffffffffffffffffffffffffffffffffffff168152602001908152602001600020819055507f1cf88760763054880e0e1a65972975d70433bbe69c46b0d6a5d75359773eb60c89896040516107f8929190611a47565b60405180910390a1505050505050505050565b600b60009054906101000a900473ffffffffffffffffffffffffffffffffffffffff1681565b60006108588260016000868152602001908152602001600020610c8490919063ffffffff16565b905092915050565b600080600084815260200190815260200160002060000160008373ffffffffffffffffffffffffffffffffffffffff1673ffffffffffffffffffffffffffffffffffffffff16815260200190815260200160002060009054906101000a900460ff16905092915050565b7f3c8423ff9fe65335563f5616901f1459e02fafa085751c8aaf5f91b0b006982381565b6000801b81565b80600b60006101000a81548173ffffffffffffffffffffffffffffffffffffffff021916908373ffffffffffffffffffffffffffffffffffffffff16021790555050565b600061095660016000848152602001908152602001600020610c9e565b9050919050565b6109678282610cb3565b61098c8160016000858152602001908152602001600020610c3e90919063ffffffff16565b505050565b7fe9d0e485f08e27baee0a8ae54381bc81292327c4ccf9bc5fab2fe4f0386e937781565b7f8a383c952fa3b6cf68c809af9e47ea2531b95c56f330357f533bebcc3fed7ca381565b600481815481106109e957600080fd5b906000526020600020016000915090508054610a0490611d6e565b80601f0160208091040260200160405190810160405280929190818152602001828054610a3090611d6e565b8015610a7d5780601f10610a5257610100808354040283529160200191610a7d565b820191906000526020600020905b815481529060010190602001808311610a6057829003601f168201915b505050505081565b60078181548110610a9557600080fd5b906000526020600020016000915054906101000a900473ffffffffffffffffffffffffffffffffffffffff1681565b7f94d356c6a55eaf8799345c99aff299019cbf14e68cc4c78e9f854ac57c94033c81565b60007f7965db0b000000000000000000000000000000000000000000000000000000007bffffffffffffffffffffffffffffffffffffffffffffffffffffffff1916827bffffffffffffffffffffffffffffffffffffffffffffffffffffffff19161480610b5b5750610b5a82610cdc565b5b9050919050565b610b6b8261051f565b610b7c81610b77610d46565b610d4e565b610b868383610deb565b505050565b6000610bb3836000018373ffffffffffffffffffffffffffffffffffffffff1660001b610ecb565b905092915050565b610bc3610d46565b73ffffffffffffffffffffffffffffffffffffffff168173ffffffffffffffffffffffffffffffffffffffff1614610c30576040517f08c379a0000000000000000000000000000000000000000000000000000000008152600401610c2790611ae8565b60405180910390fd5b610c3a8282610f3b565b5050565b6000610c66836000018373ffffffffffffffffffffffffffffffffffffffff1660001b61101c565b905092915050565b60008183610c7c9190611ba0565b905092915050565b6000610c938360000183611130565b60001c905092915050565b6000610cac8260000161115b565b9050919050565b610cbc8261051f565b610ccd81610cc8610d46565b610d4e565b610cd78383610f3b565b505050565b60007f01ffc9a7000000000000000000000000000000000000000000000000000000007bffffffffffffffffffffffffffffffffffffffffffffffffffffffff1916827bffffffffffffffffffffffffffffffffffffffffffffffffffffffff1916149050919050565b600033905090565b610d588282610860565b610de757610d7d8173ffffffffffffffffffffffffffffffffffffffff16601461116c565b610d8b8360001c602061116c565b604051602001610d9c9291906119f2565b6040516020818303038152906040526040517f08c379a0000000000000000000000000000000000000000000000000000000008152600401610dde9190611aa6565b60405180910390fd5b5050565b610df58282610860565b610ec757600160008084815260200190815260200160002060000160008373ffffffffffffffffffffffffffffffffffffffff1673ffffffffffffffffffffffffffffffffffffffff16815260200190815260200160002060006101000a81548160ff021916908315150217905550610e6c610d46565b73ffffffffffffffffffffffffffffffffffffffff168173ffffffffffffffffffffffffffffffffffffffff16837f2f8788117e7eff1d82e926ec794901d17c78024a50270940304540a733656f0d60405160405180910390a45b5050565b6000610ed783836113a8565b610f30578260000182908060018154018082558091505060019003906000526020600020016000909190919091505582600001805490508360010160008481526020019081526020016000208190555060019050610f35565b600090505b92915050565b610f458282610860565b1561101857600080600084815260200190815260200160002060000160008373ffffffffffffffffffffffffffffffffffffffff1673ffffffffffffffffffffffffffffffffffffffff16815260200190815260200160002060006101000a81548160ff021916908315150217905550610fbd610d46565b73ffffffffffffffffffffffffffffffffffffffff168173ffffffffffffffffffffffffffffffffffffffff16837ff6391f5c32d9c69d2a47ea670b442974b53935d1edc7fd64eb21e047a839171b60405160405180910390a45b5050565b6000808360010160008481526020019081526020016000205490506000811461112457600060018261104e9190611c50565b90506000600186600001805490506110669190611c50565b90508181146110d557600086600001828154811061108757611086611e5e565b5b90600052602060002001549050808760000184815481106110ab576110aa611e5e565b5b90600052602060002001819055508387600101600083815260200190815260200160002081905550505b856000018054806110e9576110e8611e2f565b5b60019003818190600052602060002001600090559055856001016000868152602001908152602001600020600090556001935050505061112a565b60009150505b92915050565b600082600001828154811061114857611147611e5e565b5b9060005260206000200154905092915050565b600081600001805490509050919050565b60606000600283600261117f9190611bf6565b6111899190611ba0565b67ffffffffffffffff8111156111a2576111a1611e8d565b5b6040519080825280601f01601f1916602001820160405280156111d45781602001600182028036833780820191505090505b5090507f30000000000000000000000000000000000000000000000000000000000000008160008151811061120c5761120b611e5e565b5b60200101907effffffffffffffffffffffffffffffffffffffffffffffffffffffffffffff1916908160001a9053507f7800000000000000000000000000000000000000000000000000000000000000816001815181106112705761126f611e5e565b5b60200101907effffffffffffffffffffffffffffffffffffffffffffffffffffffffffffff1916908160001a905350600060018460026112b09190611bf6565b6112ba9190611ba0565b90505b600181111561135a577f3031323334353637383961626364656600000000000000000000000000000000600f8616601081106112fc576112fb611e5e565b5b1a60f81b82828151811061131357611312611e5e565b5b60200101907effffffffffffffffffffffffffffffffffffffffffffffffffffffffffffff1916908160001a905350600485901c94508061135390611d44565b90506112bd565b506000841461139e576040517f08c379a000000000000000000000000000000000000000000000000000000000815260040161139590611ac8565b60405180910390fd5b8091505092915050565b600080836001016000848152602001908152602001600020541415905092915050565b8280546113d790611d6e565b90600052602060002090601f0160209004810192826113f95760008555611440565b82601f1061141257805160ff1916838001178555611440565b82800160010185558215611440579182015b8281111561143f578251825591602001919060010190611424565b5b50905061144d9190611451565b5090565b5b8082111561146a576000816000905550600101611452565b5090565b600061148161147c84611b48565b611b23565b90508281526020810184848401111561149d5761149c611ec1565b5b6114a8848285611d02565b509392505050565b6000813590506114bf81612026565b92915050565b6000813590506114d48161203d565b92915050565b6000813590506114e981612054565b92915050565b600082601f83011261150457611503611ebc565b5b813561151484826020860161146e565b91505092915050565b60008135905061152c8161206b565b92915050565b60006020828403121561154857611547611ecb565b5b6000611556848285016114b0565b91505092915050565b600080600080600080600060e0888a03121561157e5761157d611ecb565b5b600061158c8a828b016114b0565b975050602061159d8a828b016114b0565b965050604088013567ffffffffffffffff8111156115be576115bd611ec6565b5b6115ca8a828b016114ef565b955050606088013567ffffffffffffffff8111156115eb576115ea611ec6565b5b6115f78a828b016114ef565b94505060806116088a828b0161151d565b93505060a088013567ffffffffffffffff81111561162957611628611ec6565b5b6116358a828b016114ef565b92505060c06116468a828b0161151d565b91505092959891949750929550565b6000806040838503121561166c5761166b611ecb565b5b600061167a858286016114b0565b925050602083013567ffffffffffffffff81111561169b5761169a611ec6565b5b6116a7858286016114ef565b9150509250929050565b6000602082840312156116c7576116c6611ecb565b5b60006116d5848285016114c5565b91505092915050565b600080604083850312156116f5576116f4611ecb565b5b6000611703858286016114c5565b9250506020611714858286016114b0565b9150509250929050565b6000806040838503121561173557611734611ecb565b5b6000611743858286016114c5565b92505060206117548582860161151d565b9150509250929050565b60006020828403121561177457611773611ecb565b5b6000611782848285016114da565b91505092915050565b6000602082840312156117a1576117a0611ecb565b5b600082013567ffffffffffffffff8111156117bf576117be611ec6565b5b6117cb848285016114ef565b91505092915050565b6000602082840312156117ea576117e9611ecb565b5b60006117f88482850161151d565b91505092915050565b61180a81611c84565b82525050565b61181981611c96565b82525050565b61182881611ca2565b82525050565b600061183982611b79565b6118438185611b84565b9350611853818560208601611d11565b61185c81611ed0565b840191505092915050565b600061187282611b79565b61187c8185611b95565b935061188c818560208601611d11565b80840191505092915050565b60006118a5602083611b84565b91506118b082611ee1565b602082019050919050565b60006118c8600783611b95565b91506118d382611f0a565b600782019050919050565b60006118eb600883611b95565b91506118f682611f33565b600882019050919050565b600061190e600683611b95565b915061191982611f5c565b600682019050919050565b6000611931601783611b95565b915061193c82611f85565b601782019050919050565b6000611954601183611b95565b915061195f82611fae565b601182019050919050565b6000611977602f83611b84565b915061198282611fd7565b604082019050919050565b61199681611cf8565b82525050565b60006119a88284611867565b915081905092915050565b60006119be826118bb565b9150819050919050565b60006119d3826118de565b9150819050919050565b60006119e882611901565b9150819050919050565b60006119fd82611924565b9150611a098285611867565b9150611a1482611947565b9150611a208284611867565b91508190509392505050565b6000602082019050611a416000830184611801565b92915050565b6000604082019050611a5c6000830185611801565b611a696020830184611801565b9392505050565b6000602082019050611a856000830184611810565b92915050565b6000602082019050611aa0600083018461181f565b92915050565b60006020820190508181036000830152611ac0818461182e565b905092915050565b60006020820190508181036000830152611ae181611898565b9050919050565b60006020820190508181036000830152611b018161196a565b9050919050565b6000602082019050611b1d600083018461198d565b92915050565b6000611b2d611b3e565b9050611b398282611da0565b919050565b6000604051905090565b600067ffffffffffffffff821115611b6357611b62611e8d565b5b611b6c82611ed0565b9050602081019050919050565b600081519050919050565b600082825260208201905092915050565b600081905092915050565b6000611bab82611cf8565b9150611bb683611cf8565b9250827fffffffffffffffffffffffffffffffffffffffffffffffffffffffffffffffff03821115611beb57611bea611dd1565b5b828201905092915050565b6000611c0182611cf8565b9150611c0c83611cf8565b9250817fffffffffffffffffffffffffffffffffffffffffffffffffffffffffffffffff0483118215151615611c4557611c44611dd1565b5b828202905092915050565b6000611c5b82611cf8565b9150611c6683611cf8565b925082821015611c7957611c78611dd1565b5b828203905092915050565b6000611c8f82611cd8565b9050919050565b60008115159050919050565b6000819050919050565b60007fffffffff0000000000000000000000000000000000000000000000000000000082169050919050565b600073ffffffffffffffffffffffffffffffffffffffff82169050919050565b6000819050919050565b82818337600083830152505050565b60005b83811015611d2f578082015181840152602081019050611d14565b83811115611d3e576000848401525b50505050565b6000611d4f82611cf8565b91506000821415611d6357611d62611dd1565b5b600182039050919050565b60006002820490506001821680611d8657607f821691505b60208210811415611d9a57611d99611e00565b5b50919050565b611da982611ed0565b810181811067ffffffffffffffff82111715611dc857611dc7611e8d565b5b80604052505050565b7f4e487b7100000000000000000000000000000000000000000000000000000000600052601160045260246000fd5b7f4e487b7100000000000000000000000000000000000000000000000000000000600052602260045260246000fd5b7f4e487b7100000000000000000000000000000000000000000000000000000000600052603160045260246000fd5b7f4e487b7100000000000000000000000000000000000000000000000000000000600052603260045260246000fd5b7f4e487b7100000000000000000000000000000000000000000000000000000000600052604160045260246000fd5b600080fd5b600080fd5b600080fd5b600080fd5b6000601f19601f8301169050919050565b7f537472696e67733a20686578206c656e67746820696e73756666696369656e74600082015250565b7f636f6d70616e7900000000000000000000000000000000000000000000000000600082015250565b7f63757272656e6379000000000000000000000000000000000000000000000000600082015250565b7f6465766963650000000000000000000000000000000000000000000000000000600082015250565b7f416363657373436f6e74726f6c3a206163636f756e7420000000000000000000600082015250565b7f206973206d697373696e6720726f6c6520000000000000000000000000000000600082015250565b7f416363657373436f6e74726f6c3a2063616e206f6e6c792072656e6f756e636560008201527f20726f6c657320666f722073656c660000000000000000000000000000000000602082015250565b61202f81611c84565b811461203a57600080fd5b50565b61204681611ca2565b811461205157600080fd5b50565b61205d81611cac565b811461206857600080fd5b50565b61207481611cf8565b811461207f57600080fd5b5056fea26469706673582212203412a2174d713512cfb20c0e11c959537206e0547110d3e830011395812c2a2264736f6c63430008070033",
  "immutableReferences": {},
  "source": "pragma solidity 0.8.7;\n\nimport \"./Storage.sol\";\nimport \"@openzeppelin/contracts/utils/math/SafeMath.sol\";\n\n/*\n* @dev This contract is accessed by Proxy contract \n* and can be updated if the owner wishes so\n* This contract contains the logic of a function\n*/\n\ncontract P4L is Storage{\n    using SafeMath for uint256;\n\nmodifier onlyOwner () {\n    require(msg.sender == owner, 'You are not the owner');\n    _;\n}\n\nconstructor () public {\n    require(!_initialized);\n    _initialized = true;\n    initialize(msg.sender);\n}\n\nevent insurancBought(address _P4L, address _buyer);\n\nfunction initialize(address _owner) public {\nowner = _owner;\n}\n\nfunction getTheNumber(address proxyAddress, string memory _variable) public view returns(uint256){\nreturn uintStorage[_variable];\n}\n\nfunction buyDeviceInsurance(address proxyAddress, address _buyer, string memory _device, string memory _company , uint256 _amountPaid, string memory _currency, uint _period) public {\n    uint _totalBought = totalBought[_buyer];\n\n    //pd => ProductDetails\n    productDetails storage pd = userBought[_buyer][_totalBought];\n    pd.Product['device'] = _device;\n    pd.Product['company'] = _company;\n    pd.Product['currency'] = _currency;\n\npd.amount = _amountPaid;\npd.timeStamp = block.timestamp;\npd.exists = true;\n\ntotalBought[_buyer] = _totalBought.add(1);\nemit insurancBought(proxyAddress, _buyer);\n\n}\n\n}",
  "sourcePath": "/Users/dakshjoshi/Desktop/Blockchain/Ethereum/upgradeable-contracts/contracts/P4L.sol",
  "compiler": {
    "name": "solc",
    "version": "0.8.7+commit.e28d00a7.Emscripten.clang"
  },
  "schemaVersion": "3.4.3",
  "updatedAt": "2021-08-31T07:17:31.515Z",
  "devdoc": {
    "kind": "dev",
    "methods": {
      "getRoleAdmin(bytes32)": {
        "details": "Returns the admin role that controls `role`. See {grantRole} and {revokeRole}. To change a role's admin, use {_setRoleAdmin}."
      },
      "getRoleMember(bytes32,uint256)": {
        "details": "Returns one of the accounts that have `role`. `index` must be a value between 0 and {getRoleMemberCount}, non-inclusive. Role bearers are not sorted in any particular way, and their ordering may change at any point. WARNING: When using {getRoleMember} and {getRoleMemberCount}, make sure you perform all queries on the same block. See the following https://forum.openzeppelin.com/t/iterating-over-elements-on-enumerableset-in-openzeppelin-contracts/2296[forum post] for more information."
      },
      "getRoleMemberCount(bytes32)": {
        "details": "Returns the number of accounts that have `role`. Can be used together with {getRoleMember} to enumerate all bearers of a role."
      },
      "grantRole(bytes32,address)": {
        "details": "Overload {grantRole} to track enumerable memberships"
      },
      "hasRole(bytes32,address)": {
        "details": "Returns `true` if `account` has been granted `role`."
      },
      "renounceRole(bytes32,address)": {
        "details": "Overload {renounceRole} to track enumerable memberships"
      },
      "revokeRole(bytes32,address)": {
        "details": "Overload {revokeRole} to track enumerable memberships"
      },
      "supportsInterface(bytes4)": {
        "details": "See {IERC165-supportsInterface}."
      }
    },
    "version": 1
  },
  "userdoc": {
    "kind": "user",
    "methods": {},
    "version": 1
  }
}