{
  "contractName": "Proxy",
  "abi": [
    {
      "stateMutability": "payable",
      "type": "fallback",
      "payable": true
    },
    {
      "inputs": [],
      "name": "_initialized",
      "outputs": [
        {
          "internalType": "bool",
          "name": "",
          "type": "bool"
        }
      ],
      "stateMutability": "view",
      "type": "function",
      "constant": true
    },
    {
      "inputs": [
        {
          "internalType": "string",
          "name": "",
          "type": "string"
        }
      ],
      "name": "addressStorage",
      "outputs": [
        {
          "internalType": "address",
          "name": "",
          "type": "address"
        }
      ],
      "stateMutability": "view",
      "type": "function",
      "constant": true
    },
    {
      "inputs": [
        {
          "internalType": "string",
          "name": "",
          "type": "string"
        }
      ],
      "name": "boolStorage",
      "outputs": [
        {
          "internalType": "bool",
          "name": "",
          "type": "bool"
        }
      ],
      "stateMutability": "view",
      "type": "function",
      "constant": true
    },
    {
      "inputs": [
        {
          "internalType": "string",
          "name": "",
          "type": "string"
        }
      ],
      "name": "bytesStorage",
      "outputs": [
        {
          "internalType": "bytes4",
          "name": "",
          "type": "bytes4"
        }
      ],
      "stateMutability": "view",
      "type": "function",
      "constant": true
    },
    {
      "inputs": [],
      "name": "owner",
      "outputs": [
        {
          "internalType": "address",
          "name": "",
          "type": "address"
        }
      ],
      "stateMutability": "view",
      "type": "function",
      "constant": true
    },
    {
      "inputs": [
        {
          "internalType": "string",
          "name": "",
          "type": "string"
        }
      ],
      "name": "stringStorage",
      "outputs": [
        {
          "internalType": "string",
          "name": "",
          "type": "string"
        }
      ],
      "stateMutability": "view",
      "type": "function",
      "constant": true
    },
    {
      "inputs": [
        {
          "internalType": "string",
          "name": "",
          "type": "string"
        }
      ],
      "name": "uintStorage",
      "outputs": [
        {
          "internalType": "uint256",
          "name": "",
          "type": "uint256"
        }
      ],
      "stateMutability": "view",
      "type": "function",
      "constant": true
    },
    {
      "inputs": [],
      "name": "updContract",
      "outputs": [
        {
          "internalType": "address",
          "name": "",
          "type": "address"
        }
      ],
      "stateMutability": "view",
      "type": "function",
      "constant": true
    },
    {
      "inputs": [
        {
          "internalType": "address",
          "name": "newAddress",
          "type": "address"
        }
      ],
      "name": "updateContract",
      "outputs": [],
      "stateMutability": "nonpayable",
      "type": "function"
    },
    {
      "inputs": [],
      "name": "read",
      "outputs": [
        {
          "internalType": "uint256",
          "name": "",
          "type": "uint256"
        }
      ],
      "stateMutability": "view",
      "type": "function",
      "constant": true
    }
  ],
  "bytecode": "0x608060405234801561001057600080fd5b50610a63806100206000396000f3fe6080604052600436106100955760003560e01c806385ccf0641161005957806385ccf0641461050f5780638da5cb5b146105eb578063b5066b611461062c578063e3db17b81461070a578063f5c8312f1461075b57610096565b806324530995146101895780633072cf601461028457806332285bda146102b157806357de26a4146103f25780637547b64e1461041d57610096565b5b6000600660009054906101000a900473ffffffffffffffffffffffffffffffffffffffff169050600073ffffffffffffffffffffffffffffffffffffffff16600660009054906101000a900473ffffffffffffffffffffffffffffffffffffffff1673ffffffffffffffffffffffffffffffffffffffff16141561011957600080fd5b60606000368080601f016020809104026020016040519081016040528093929190818152602001838380828437600081840152601f19601f820116905080830192505050505050509050600080825160208401855af43d604051816000823e8260008114610185578282f35b8282fd5b34801561019557600080fd5b5061024f600480360360208110156101ac57600080fd5b81019080803590602001906401000000008111156101c957600080fd5b8201836020820111156101db57600080fd5b803590602001918460018302840111640100000000831117156101fd57600080fd5b91908080601f016020809104026020016040519081016040528093929190818152602001838380828437600081840152601f19601f82011690508083019250505050505050919291929050505061079c565b60405180827bffffffffffffffffffffffffffffffffffffffffffffffffffffffff1916815260200191505060405180910390f35b34801561029057600080fd5b506102996107d2565b60405180821515815260200191505060405180910390f35b3480156102bd57600080fd5b50610377600480360360208110156102d457600080fd5b81019080803590602001906401000000008111156102f157600080fd5b82018360208201111561030357600080fd5b8035906020019184600183028401116401000000008311171561032557600080fd5b91908080601f016020809104026020016040519081016040528093929190818152602001838380828437600081840152601f19601f8201169050808301925050505050505091929192905050506107e5565b6040518080602001828103825283818151815260200191508051906020019080838360005b838110156103b757808201518184015260208101905061039c565b50505050905090810190601f1680156103e45780820380516001836020036101000a031916815260200191505b509250505060405180910390f35b3480156103fe57600080fd5b506104076108ab565b6040518082815260200191505060405180910390f35b34801561042957600080fd5b506104e36004803603602081101561044057600080fd5b810190808035906020019064010000000081111561045d57600080fd5b82018360208201111561046f57600080fd5b8035906020019184600183028401116401000000008311171561049157600080fd5b91908080601f016020809104026020016040519081016040528093929190818152602001838380828437600081840152601f19601f8201169050808301925050505050505091929192905050506108f0565b604051808273ffffffffffffffffffffffffffffffffffffffff16815260200191505060405180910390f35b34801561051b57600080fd5b506105d56004803603602081101561053257600080fd5b810190808035906020019064010000000081111561054f57600080fd5b82018360208201111561056157600080fd5b8035906020019184600183028401116401000000008311171561058357600080fd5b91908080601f016020809104026020016040519081016040528093929190818152602001838380828437600081840152601f19601f820116905080830192505050505050509192919290505050610939565b6040518082815260200191505060405180910390f35b3480156105f757600080fd5b50610600610967565b604051808273ffffffffffffffffffffffffffffffffffffffff16815260200191505060405180910390f35b34801561063857600080fd5b506106f26004803603602081101561064f57600080fd5b810190808035906020019064010000000081111561066c57600080fd5b82018360208201111561067e57600080fd5b803590602001918460018302840111640100000000831117156106a057600080fd5b91908080601f016020809104026020016040519081016040528093929190818152602001838380828437600081840152601f19601f82011690508083019250505050505050919291929050505061098d565b60405180821515815260200191505060405180910390f35b34801561071657600080fd5b506107596004803603602081101561072d57600080fd5b81019080803573ffffffffffffffffffffffffffffffffffffffff1690602001909291905050506109c3565b005b34801561076757600080fd5b50610770610a07565b604051808273ffffffffffffffffffffffffffffffffffffffff16815260200191505060405180910390f35b6004818051602081018201805184825260208301602085012081835280955050505050506000915054906101000a900460e01b81565b600560149054906101000a900460ff1681565b6003818051602081018201805184825260208301602085012081835280955050505050506000915090508054600181600116156101000203166002900480601f0160208091040260200160405190810160405280929190818152602001828054600181600116156101000203166002900480156108a35780601f10610878576101008083540402835291602001916108a3565b820191906000526020600020905b81548152906001019060200180831161088657829003601f168201915b505050505081565b60008060405180807f6e756d62657200000000000000000000000000000000000000000000000000008152506006019050908152602001604051809103902054905090565b6001818051602081018201805184825260208301602085012081835280955050505050506000915054906101000a900473ffffffffffffffffffffffffffffffffffffffff1681565b6000818051602081018201805184825260208301602085012081835280955050505050506000915090505481565b600560009054906101000a900473ffffffffffffffffffffffffffffffffffffffff1681565b6002818051602081018201805184825260208301602085012081835280955050505050506000915054906101000a900460ff1681565b80600660006101000a81548173ffffffffffffffffffffffffffffffffffffffff021916908373ffffffffffffffffffffffffffffffffffffffff16021790555050565b600660009054906101000a900473ffffffffffffffffffffffffffffffffffffffff168156fea264697066735822122025c17bfcbbfb10161e2e3e9919dce404dd8041ca4cf1d430ad373b1491e1461f64736f6c634300060c0033",
  "immutableReferences": {},
  "source": "pragma solidity 0.6.12;\n\nimport \"./Storage.sol\";\n\n/*\n* @dev this contract is the main contract \n* with which the user will interact\n* it calls the Function contract which can be updated \n* by simply updating the new function contract address \n*/\n\ncontract Proxy is Storage{\n\naddress public updContract;\n\n// constructor(address functionContract) {\n//      updContract = functionContract;\n// }\n\nfunction updateContract(address newAddress) public {\n    updContract = newAddress;\n}\n\nfunction read() public view returns (uint256) {\nreturn uintStorage[\"number\"];\n}\n\n fallback() external payable {\n     //Setting the proxy contract address\n     address implementaton = updContract;\n\n     //For security setting the condition that address !=0\n     //Because that will lead us no where\n     require(updContract != address(0));\n\n     //Setting variable for the data of the function \n     //This is all the input values of the function\n     bytes memory data = msg.data;\n\n//The fun begins\nassembly {\nlet result := delegatecall(gas(), implementaton, add(data, 0x20), mload(data), 0, 0)\nlet size := returndatasize()\nlet ptr := mload(0x40)\nreturndatacopy(ptr, 0, size)\n\nswitch result\ncase 0 {revert(ptr, size)}\ndefault {return (ptr, size)}\n}\n}\n}",
  "sourcePath": "/Users/dakshjoshi/Desktop/Blockchain/Ethereum/upgradeable-contracts/contracts/Proxy.sol",
  "compiler": {
    "name": "solc",
    "version": "0.6.12+commit.27d51765.Emscripten.clang"
  },
  "schemaVersion": "3.4.3",
  "updatedAt": "2021-08-26T11:38:23.515Z",
  "networkType": "ethereum",
  "devdoc": {
    "kind": "dev",
    "methods": {},
    "version": 1
  },
  "userdoc": {
    "kind": "user",
    "methods": {},
    "version": 1
  }
}