{
  "contractName": "Proxy",
  "abi": [
    {
      "inputs": [],
      "stateMutability": "nonpayable",
      "type": "constructor"
    },
    {
      "anonymous": false,
      "inputs": [
        {
          "indexed": true,
          "internalType": "bytes32",
          "name": "role",
          "type": "bytes32"
        },
        {
          "indexed": true,
          "internalType": "bytes32",
          "name": "previousAdminRole",
          "type": "bytes32"
        },
        {
          "indexed": true,
          "internalType": "bytes32",
          "name": "newAdminRole",
          "type": "bytes32"
        }
      ],
      "name": "RoleAdminChanged",
      "type": "event"
    },
    {
      "anonymous": false,
      "inputs": [
        {
          "indexed": true,
          "internalType": "bytes32",
          "name": "role",
          "type": "bytes32"
        },
        {
          "indexed": true,
          "internalType": "address",
          "name": "account",
          "type": "address"
        },
        {
          "indexed": true,
          "internalType": "address",
          "name": "sender",
          "type": "address"
        }
      ],
      "name": "RoleGranted",
      "type": "event"
    },
    {
      "anonymous": false,
      "inputs": [
        {
          "indexed": true,
          "internalType": "bytes32",
          "name": "role",
          "type": "bytes32"
        },
        {
          "indexed": true,
          "internalType": "address",
          "name": "account",
          "type": "address"
        },
        {
          "indexed": true,
          "internalType": "address",
          "name": "sender",
          "type": "address"
        }
      ],
      "name": "RoleRevoked",
      "type": "event"
    },
    {
      "stateMutability": "payable",
      "type": "fallback",
      "payable": true
    },
    {
      "inputs": [],
      "name": "DEFAULT_ADMIN_ROLE",
      "outputs": [
        {
          "internalType": "bytes32",
          "name": "",
          "type": "bytes32"
        }
      ],
      "stateMutability": "view",
      "type": "function",
      "constant": true
    },
    {
      "inputs": [],
      "name": "EMERGENCY_OFFICERS",
      "outputs": [
        {
          "internalType": "bytes32",
          "name": "",
          "type": "bytes32"
        }
      ],
      "stateMutability": "view",
      "type": "function",
      "constant": true
    },
    {
      "inputs": [],
      "name": "MANAGER_ROLE",
      "outputs": [
        {
          "internalType": "bytes32",
          "name": "",
          "type": "bytes32"
        }
      ],
      "stateMutability": "view",
      "type": "function",
      "constant": true
    },
    {
      "inputs": [],
      "name": "PARTNERS",
      "outputs": [
        {
          "internalType": "bytes32",
          "name": "",
          "type": "bytes32"
        }
      ],
      "stateMutability": "view",
      "type": "function",
      "constant": true
    },
    {
      "inputs": [],
      "name": "UPGRADE_OFFICER",
      "outputs": [
        {
          "internalType": "bytes32",
          "name": "",
          "type": "bytes32"
        }
      ],
      "stateMutability": "view",
      "type": "function",
      "constant": true
    },
    {
      "inputs": [],
      "name": "_initialized",
      "outputs": [
        {
          "internalType": "bool",
          "name": "",
          "type": "bool"
        }
      ],
      "stateMutability": "view",
      "type": "function",
      "constant": true
    },
    {
      "inputs": [
        {
          "internalType": "uint256",
          "name": "",
          "type": "uint256"
        }
      ],
      "name": "buyers",
      "outputs": [
        {
          "internalType": "address",
          "name": "",
          "type": "address"
        }
      ],
      "stateMutability": "view",
      "type": "function",
      "constant": true
    },
    {
      "inputs": [
        {
          "internalType": "address",
          "name": "",
          "type": "address"
        }
      ],
      "name": "functionalAddress",
      "outputs": [
        {
          "internalType": "bool",
          "name": "",
          "type": "bool"
        }
      ],
      "stateMutability": "view",
      "type": "function",
      "constant": true
    },
    {
      "inputs": [
        {
          "internalType": "bytes32",
          "name": "role",
          "type": "bytes32"
        }
      ],
      "name": "getRoleAdmin",
      "outputs": [
        {
          "internalType": "bytes32",
          "name": "",
          "type": "bytes32"
        }
      ],
      "stateMutability": "view",
      "type": "function",
      "constant": true
    },
    {
      "inputs": [
        {
          "internalType": "bytes32",
          "name": "role",
          "type": "bytes32"
        },
        {
          "internalType": "uint256",
          "name": "index",
          "type": "uint256"
        }
      ],
      "name": "getRoleMember",
      "outputs": [
        {
          "internalType": "address",
          "name": "",
          "type": "address"
        }
      ],
      "stateMutability": "view",
      "type": "function",
      "constant": true
    },
    {
      "inputs": [
        {
          "internalType": "bytes32",
          "name": "role",
          "type": "bytes32"
        }
      ],
      "name": "getRoleMemberCount",
      "outputs": [
        {
          "internalType": "uint256",
          "name": "",
          "type": "uint256"
        }
      ],
      "stateMutability": "view",
      "type": "function",
      "constant": true
    },
    {
      "inputs": [
        {
          "internalType": "bytes32",
          "name": "role",
          "type": "bytes32"
        },
        {
          "internalType": "address",
          "name": "account",
          "type": "address"
        }
      ],
      "name": "grantRole",
      "outputs": [],
      "stateMutability": "nonpayable",
      "type": "function"
    },
    {
      "inputs": [
        {
          "internalType": "bytes32",
          "name": "role",
          "type": "bytes32"
        },
        {
          "internalType": "address",
          "name": "account",
          "type": "address"
        }
      ],
      "name": "hasRole",
      "outputs": [
        {
          "internalType": "bool",
          "name": "",
          "type": "bool"
        }
      ],
      "stateMutability": "view",
      "type": "function",
      "constant": true
    },
    {
      "inputs": [],
      "name": "owner",
      "outputs": [
        {
          "internalType": "address",
          "name": "",
          "type": "address"
        }
      ],
      "stateMutability": "view",
      "type": "function",
      "constant": true
    },
    {
      "inputs": [
        {
          "internalType": "uint256",
          "name": "",
          "type": "uint256"
        }
      ],
      "name": "partnerList",
      "outputs": [
        {
          "internalType": "string",
          "name": "",
          "type": "string"
        }
      ],
      "stateMutability": "view",
      "type": "function",
      "constant": true
    },
    {
      "inputs": [
        {
          "internalType": "bytes32",
          "name": "role",
          "type": "bytes32"
        },
        {
          "internalType": "address",
          "name": "account",
          "type": "address"
        }
      ],
      "name": "renounceRole",
      "outputs": [],
      "stateMutability": "nonpayable",
      "type": "function"
    },
    {
      "inputs": [
        {
          "internalType": "bytes32",
          "name": "role",
          "type": "bytes32"
        },
        {
          "internalType": "address",
          "name": "account",
          "type": "address"
        }
      ],
      "name": "revokeRole",
      "outputs": [],
      "stateMutability": "nonpayable",
      "type": "function"
    },
    {
      "inputs": [
        {
          "internalType": "bytes4",
          "name": "interfaceId",
          "type": "bytes4"
        }
      ],
      "name": "supportsInterface",
      "outputs": [
        {
          "internalType": "bool",
          "name": "",
          "type": "bool"
        }
      ],
      "stateMutability": "view",
      "type": "function",
      "constant": true
    },
    {
      "inputs": [
        {
          "internalType": "string",
          "name": "",
          "type": "string"
        }
      ],
      "name": "uintStorage",
      "outputs": [
        {
          "internalType": "uint256",
          "name": "",
          "type": "uint256"
        }
      ],
      "stateMutability": "view",
      "type": "function",
      "constant": true
    },
    {
      "inputs": [
        {
          "internalType": "address",
          "name": "newAddress",
          "type": "address"
        }
      ],
      "name": "addProxy",
      "outputs": [],
      "stateMutability": "nonpayable",
      "type": "function"
    },
    {
      "inputs": [
        {
          "internalType": "address",
          "name": "oldAddress",
          "type": "address"
        }
      ],
      "name": "removeProxy",
      "outputs": [],
      "stateMutability": "nonpayable",
      "type": "function"
    },
    {
      "inputs": [],
      "name": "read",
      "outputs": [
        {
          "internalType": "uint256",
          "name": "",
          "type": "uint256"
        }
      ],
      "stateMutability": "view",
      "type": "function",
      "constant": true
    }
  ],
  "bytecode": "0x60806040523480156200001157600080fd5b5033600b60006101000a81548173ffffffffffffffffffffffffffffffffffffffff021916908373ffffffffffffffffffffffffffffffffffffffff160217905550620000776000801b6200006b6200018160201b60201c565b6200018960201b60201c565b620000b87f8a383c952fa3b6cf68c809af9e47ea2531b95c56f330357f533bebcc3fed7ca3620000ac6200018160201b60201c565b6200018960201b60201c565b620000f97fe9d0e485f08e27baee0a8ae54381bc81292327c4ccf9bc5fab2fe4f0386e9377620000ed6200018160201b60201c565b6200018960201b60201c565b6200013a7f94d356c6a55eaf8799345c99aff299019cbf14e68cc4c78e9f854ac57c94033c6200012e6200018160201b60201c565b6200018960201b60201c565b6200017b7f3c8423ff9fe65335563f5616901f1459e02fafa085751c8aaf5f91b0b00698236200016f6200018160201b60201c565b6200018960201b60201c565b62000417565b600033905090565b620001a08282620001d160201b62000c931760201c565b620001cc8160016000858152602001908152602001600020620001e760201b62000ca11790919060201c565b505050565b620001e382826200021f60201b60201c565b5050565b600062000217836000018373ffffffffffffffffffffffffffffffffffffffff1660001b6200031060201b60201c565b905092915050565b6200023182826200038a60201b60201c565b6200030c57600160008084815260200190815260200160002060000160008373ffffffffffffffffffffffffffffffffffffffff1673ffffffffffffffffffffffffffffffffffffffff16815260200190815260200160002060006101000a81548160ff021916908315150217905550620002b16200018160201b60201c565b73ffffffffffffffffffffffffffffffffffffffff168173ffffffffffffffffffffffffffffffffffffffff16837f2f8788117e7eff1d82e926ec794901d17c78024a50270940304540a733656f0d60405160405180910390a45b5050565b6000620003248383620003f460201b60201c565b6200037f57826000018290806001815401808255809150506001900390600052602060002001600090919091909150558260000180549050836001016000848152602001908152602001600020819055506001905062000384565b600090505b92915050565b600080600084815260200190815260200160002060000160008373ffffffffffffffffffffffffffffffffffffffff1673ffffffffffffffffffffffffffffffffffffffff16815260200190815260200160002060009054906101000a900460ff16905092915050565b600080836001016000848152602001908152602001600020541415905092915050565b611ff680620004276000396000f3fe6080604052600436106101395760003560e01c806391d14854116100ab578063d547741f1161006f578063d547741f1461046a578063e5bd74f814610493578063ec87621c146104be578063f13b874d146104e9578063f2aa821814610526578063ffa3f38f146105635761013a565b806391d148541461037157806394b91f06146103ae578063a217fddf146103d9578063be116c3b14610404578063ca15c8731461042d5761013a565b80633072cf60116100fd5780633072cf601461024d57806336568abe1461027857806357de26a4146102a157806385ccf064146102cc5780638da5cb5b146103095780639010d07c146103345761013a565b806301ffc9a714610144578063147dbafa1461018157806323b11d8d146101be578063248a9ca3146101e75780632f2ff15d146102245761013a565b5b61014261058e565b005b34801561015057600080fd5b5061016b6004803603810190610166919061170c565b6106f6565b6040516101789190611991565b60405180910390f35b34801561018d57600080fd5b506101a860048036038101906101a39190611632565b610770565b6040516101b59190611991565b60405180910390f35b3480156101ca57600080fd5b506101e560048036038101906101e09190611632565b610790565b005b3480156101f357600080fd5b5061020e6004803603810190610209919061165f565b61084f565b60405161021b91906119ac565b60405180910390f35b34801561023057600080fd5b5061024b6004803603810190610246919061168c565b61086e565b005b34801561025957600080fd5b506102626108a2565b60405161026f9190611991565b60405180910390f35b34801561028457600080fd5b5061029f600480360381019061029a919061168c565b6108b5565b005b3480156102ad57600080fd5b506102b66108e9565b6040516102c39190611a49565b60405180910390f35b3480156102d857600080fd5b506102f360048036038101906102ee9190611739565b61090d565b6040516103009190611a49565b60405180910390f35b34801561031557600080fd5b5061031e61093b565b60405161032b9190611976565b60405180910390f35b34801561034057600080fd5b5061035b600480360381019061035691906116cc565b610961565b6040516103689190611976565b60405180910390f35b34801561037d57600080fd5b506103986004803603810190610393919061168c565b610990565b6040516103a59190611991565b60405180910390f35b3480156103ba57600080fd5b506103c36109fa565b6040516103d091906119ac565b60405180910390f35b3480156103e557600080fd5b506103ee610a1e565b6040516103fb91906119ac565b60405180910390f35b34801561041057600080fd5b5061042b60048036038101906104269190611632565b610a25565b005b34801561043957600080fd5b50610454600480360381019061044f919061165f565b610ae4565b6040516104619190611a49565b60405180910390f35b34801561047657600080fd5b50610491600480360381019061048c919061168c565b610b08565b005b34801561049f57600080fd5b506104a8610b3c565b6040516104b591906119ac565b60405180910390f35b3480156104ca57600080fd5b506104d3610b60565b6040516104e091906119ac565b60405180910390f35b3480156104f557600080fd5b50610510600480360381019061050b9190611782565b610b84565b60405161051d91906119c7565b60405180910390f35b34801561053257600080fd5b5061054d60048036038101906105489190611782565b610c30565b60405161055a9190611976565b60405180910390f35b34801561056f57600080fd5b50610578610c6f565b60405161058591906119ac565b60405180910390f35b600b60009054906101000a900473ffffffffffffffffffffffffffffffffffffffff1673ffffffffffffffffffffffffffffffffffffffff163373ffffffffffffffffffffffffffffffffffffffff16146106f457600080368080601f016020809104026020016040519081016040528093929190818152602001838380828437600081840152601f19601f820116905080830192505050505050509050600060246010600037600051905060008160601c9050600a60008273ffffffffffffffffffffffffffffffffffffffff1673ffffffffffffffffffffffffffffffffffffffff16815260200190815260200160002060009054906101000a900460ff166106ce576040517f08c379a00000000000000000000000000000000000000000000000000000000081526004016106c590611a09565b60405180910390fd5b600080845160208601845af43d604051816000823e82600081146106f0578282f35b8282fd5b565b60007f5a05180f000000000000000000000000000000000000000000000000000000007bffffffffffffffffffffffffffffffffffffffffffffffffffffffff1916827bffffffffffffffffffffffffffffffffffffffffffffffffffffffff19161480610769575061076882610cd1565b5b9050919050565b600a6020528060005260406000206000915054906101000a900460ff1681565b600b60009054906101000a900473ffffffffffffffffffffffffffffffffffffffff1673ffffffffffffffffffffffffffffffffffffffff163373ffffffffffffffffffffffffffffffffffffffff161415610843576001600a60008373ffffffffffffffffffffffffffffffffffffffff1673ffffffffffffffffffffffffffffffffffffffff16815260200190815260200160002060006101000a81548160ff02191690831515021790555061084c565b61084b61058e565b5b50565b6000806000838152602001908152602001600020600101549050919050565b6108788282610d4b565b61089d8160016000858152602001908152602001600020610ca190919063ffffffff16565b505050565b600b60149054906101000a900460ff1681565b6108bf8282610d74565b6108e48160016000858152602001908152602001600020610df790919063ffffffff16565b505050565b600060026040516108f990611961565b908152602001604051809103902054905090565b6002818051602081018201805184825260208301602085012081835280955050505050506000915090505481565b600b60009054906101000a900473ffffffffffffffffffffffffffffffffffffffff1681565b60006109888260016000868152602001908152602001600020610e2790919063ffffffff16565b905092915050565b600080600084815260200190815260200160002060000160008373ffffffffffffffffffffffffffffffffffffffff1673ffffffffffffffffffffffffffffffffffffffff16815260200190815260200160002060009054906101000a900460ff16905092915050565b7f3c8423ff9fe65335563f5616901f1459e02fafa085751c8aaf5f91b0b006982381565b6000801b81565b600b60009054906101000a900473ffffffffffffffffffffffffffffffffffffffff1673ffffffffffffffffffffffffffffffffffffffff163373ffffffffffffffffffffffffffffffffffffffff161415610ad8576000600a60008373ffffffffffffffffffffffffffffffffffffffff1673ffffffffffffffffffffffffffffffffffffffff16815260200190815260200160002060006101000a81548160ff021916908315150217905550610ae1565b610ae061058e565b5b50565b6000610b0160016000848152602001908152602001600020610e41565b9050919050565b610b128282610e56565b610b378160016000858152602001908152602001600020610df790919063ffffffff16565b505050565b7fe9d0e485f08e27baee0a8ae54381bc81292327c4ccf9bc5fab2fe4f0386e937781565b7f8a383c952fa3b6cf68c809af9e47ea2531b95c56f330357f533bebcc3fed7ca381565b60048181548110610b9457600080fd5b906000526020600020016000915090508054610baf90611caf565b80601f0160208091040260200160405190810160405280929190818152602001828054610bdb90611caf565b8015610c285780601f10610bfd57610100808354040283529160200191610c28565b820191906000526020600020905b815481529060010190602001808311610c0b57829003601f168201915b505050505081565b60078181548110610c4057600080fd5b906000526020600020016000915054906101000a900473ffffffffffffffffffffffffffffffffffffffff1681565b7f94d356c6a55eaf8799345c99aff299019cbf14e68cc4c78e9f854ac57c94033c81565b610c9d8282610e7f565b5050565b6000610cc9836000018373ffffffffffffffffffffffffffffffffffffffff1660001b610f5f565b905092915050565b60007f7965db0b000000000000000000000000000000000000000000000000000000007bffffffffffffffffffffffffffffffffffffffffffffffffffffffff1916827bffffffffffffffffffffffffffffffffffffffffffffffffffffffff19161480610d445750610d4382610fcf565b5b9050919050565b610d548261084f565b610d6581610d60611039565b611041565b610d6f8383610e7f565b505050565b610d7c611039565b73ffffffffffffffffffffffffffffffffffffffff168173ffffffffffffffffffffffffffffffffffffffff1614610de9576040517f08c379a0000000000000000000000000000000000000000000000000000000008152600401610de090611a29565b60405180910390fd5b610df382826110de565b5050565b6000610e1f836000018373ffffffffffffffffffffffffffffffffffffffff1660001b6111bf565b905092915050565b6000610e3683600001836112d3565b60001c905092915050565b6000610e4f826000016112fe565b9050919050565b610e5f8261084f565b610e7081610e6b611039565b611041565b610e7a83836110de565b505050565b610e898282610990565b610f5b57600160008084815260200190815260200160002060000160008373ffffffffffffffffffffffffffffffffffffffff1673ffffffffffffffffffffffffffffffffffffffff16815260200190815260200160002060006101000a81548160ff021916908315150217905550610f00611039565b73ffffffffffffffffffffffffffffffffffffffff168173ffffffffffffffffffffffffffffffffffffffff16837f2f8788117e7eff1d82e926ec794901d17c78024a50270940304540a733656f0d60405160405180910390a45b5050565b6000610f6b838361130f565b610fc4578260000182908060018154018082558091505060019003906000526020600020016000909190919091505582600001805490508360010160008481526020019081526020016000208190555060019050610fc9565b600090505b92915050565b60007f01ffc9a7000000000000000000000000000000000000000000000000000000007bffffffffffffffffffffffffffffffffffffffffffffffffffffffff1916827bffffffffffffffffffffffffffffffffffffffffffffffffffffffff1916149050919050565b600033905090565b61104b8282610990565b6110da576110708173ffffffffffffffffffffffffffffffffffffffff166014611332565b61107e8360001c6020611332565b60405160200161108f929190611927565b6040516020818303038152906040526040517f08c379a00000000000000000000000000000000000000000000000000000000081526004016110d191906119c7565b60405180910390fd5b5050565b6110e88282610990565b156111bb57600080600084815260200190815260200160002060000160008373ffffffffffffffffffffffffffffffffffffffff1673ffffffffffffffffffffffffffffffffffffffff16815260200190815260200160002060006101000a81548160ff021916908315150217905550611160611039565b73ffffffffffffffffffffffffffffffffffffffff168173ffffffffffffffffffffffffffffffffffffffff16837ff6391f5c32d9c69d2a47ea670b442974b53935d1edc7fd64eb21e047a839171b60405160405180910390a45b5050565b600080836001016000848152602001908152602001600020549050600081146112c75760006001826111f19190611b91565b90506000600186600001805490506112099190611b91565b905081811461127857600086600001828154811061122a57611229611d9f565b5b906000526020600020015490508087600001848154811061124e5761124d611d9f565b5b90600052602060002001819055508387600101600083815260200190815260200160002081905550505b8560000180548061128c5761128b611d70565b5b6001900381819060005260206000200160009055905585600101600086815260200190815260200160002060009055600193505050506112cd565b60009150505b92915050565b60008260000182815481106112eb576112ea611d9f565b5b9060005260206000200154905092915050565b600081600001805490509050919050565b600080836001016000848152602001908152602001600020541415905092915050565b6060600060028360026113459190611b37565b61134f9190611ae1565b67ffffffffffffffff81111561136857611367611dce565b5b6040519080825280601f01601f19166020018201604052801561139a5781602001600182028036833780820191505090505b5090507f3000000000000000000000000000000000000000000000000000000000000000816000815181106113d2576113d1611d9f565b5b60200101907effffffffffffffffffffffffffffffffffffffffffffffffffffffffffffff1916908160001a9053507f78000000000000000000000000000000000000000000000000000000000000008160018151811061143657611435611d9f565b5b60200101907effffffffffffffffffffffffffffffffffffffffffffffffffffffffffffff1916908160001a905350600060018460026114769190611b37565b6114809190611ae1565b90505b6001811115611520577f3031323334353637383961626364656600000000000000000000000000000000600f8616601081106114c2576114c1611d9f565b5b1a60f81b8282815181106114d9576114d8611d9f565b5b60200101907effffffffffffffffffffffffffffffffffffffffffffffffffffffffffffff1916908160001a905350600485901c94508061151990611c85565b9050611483565b5060008414611564576040517f08c379a000000000000000000000000000000000000000000000000000000000815260040161155b906119e9565b60405180910390fd5b8091505092915050565b600061158161157c84611a89565b611a64565b90508281526020810184848401111561159d5761159c611e02565b5b6115a8848285611c43565b509392505050565b6000813590506115bf81611f64565b92915050565b6000813590506115d481611f7b565b92915050565b6000813590506115e981611f92565b92915050565b600082601f83011261160457611603611dfd565b5b813561161484826020860161156e565b91505092915050565b60008135905061162c81611fa9565b92915050565b60006020828403121561164857611647611e0c565b5b6000611656848285016115b0565b91505092915050565b60006020828403121561167557611674611e0c565b5b6000611683848285016115c5565b91505092915050565b600080604083850312156116a3576116a2611e0c565b5b60006116b1858286016115c5565b92505060206116c2858286016115b0565b9150509250929050565b600080604083850312156116e3576116e2611e0c565b5b60006116f1858286016115c5565b92505060206117028582860161161d565b9150509250929050565b60006020828403121561172257611721611e0c565b5b6000611730848285016115da565b91505092915050565b60006020828403121561174f5761174e611e0c565b5b600082013567ffffffffffffffff81111561176d5761176c611e07565b5b611779848285016115ef565b91505092915050565b60006020828403121561179857611797611e0c565b5b60006117a68482850161161d565b91505092915050565b6117b881611bc5565b82525050565b6117c781611bd7565b82525050565b6117d681611be3565b82525050565b60006117e782611aba565b6117f18185611ac5565b9350611801818560208601611c52565b61180a81611e11565b840191505092915050565b600061182082611aba565b61182a8185611ad6565b935061183a818560208601611c52565b80840191505092915050565b6000611853602083611ac5565b915061185e82611e22565b602082019050919050565b6000611876602483611ac5565b915061188182611e4b565b604082019050919050565b6000611899601783611ad6565b91506118a482611e9a565b601782019050919050565b60006118bc600683611ad6565b91506118c782611ec3565b600682019050919050565b60006118df601183611ad6565b91506118ea82611eec565b601182019050919050565b6000611902602f83611ac5565b915061190d82611f15565b604082019050919050565b61192181611c39565b82525050565b60006119328261188c565b915061193e8285611815565b9150611949826118d2565b91506119558284611815565b91508190509392505050565b600061196c826118af565b9150819050919050565b600060208201905061198b60008301846117af565b92915050565b60006020820190506119a660008301846117be565b92915050565b60006020820190506119c160008301846117cd565b92915050565b600060208201905081810360008301526119e181846117dc565b905092915050565b60006020820190508181036000830152611a0281611846565b9050919050565b60006020820190508181036000830152611a2281611869565b9050919050565b60006020820190508181036000830152611a42816118f5565b9050919050565b6000602082019050611a5e6000830184611918565b92915050565b6000611a6e611a7f565b9050611a7a8282611ce1565b919050565b6000604051905090565b600067ffffffffffffffff821115611aa457611aa3611dce565b5b611aad82611e11565b9050602081019050919050565b600081519050919050565b600082825260208201905092915050565b600081905092915050565b6000611aec82611c39565b9150611af783611c39565b9250827fffffffffffffffffffffffffffffffffffffffffffffffffffffffffffffffff03821115611b2c57611b2b611d12565b5b828201905092915050565b6000611b4282611c39565b9150611b4d83611c39565b9250817fffffffffffffffffffffffffffffffffffffffffffffffffffffffffffffffff0483118215151615611b8657611b85611d12565b5b828202905092915050565b6000611b9c82611c39565b9150611ba783611c39565b925082821015611bba57611bb9611d12565b5b828203905092915050565b6000611bd082611c19565b9050919050565b60008115159050919050565b6000819050919050565b60007fffffffff0000000000000000000000000000000000000000000000000000000082169050919050565b600073ffffffffffffffffffffffffffffffffffffffff82169050919050565b6000819050919050565b82818337600083830152505050565b60005b83811015611c70578082015181840152602081019050611c55565b83811115611c7f576000848401525b50505050565b6000611c9082611c39565b91506000821415611ca457611ca3611d12565b5b600182039050919050565b60006002820490506001821680611cc757607f821691505b60208210811415611cdb57611cda611d41565b5b50919050565b611cea82611e11565b810181811067ffffffffffffffff82111715611d0957611d08611dce565b5b80604052505050565b7f4e487b7100000000000000000000000000000000000000000000000000000000600052601160045260246000fd5b7f4e487b7100000000000000000000000000000000000000000000000000000000600052602260045260246000fd5b7f4e487b7100000000000000000000000000000000000000000000000000000000600052603160045260246000fd5b7f4e487b7100000000000000000000000000000000000000000000000000000000600052603260045260246000fd5b7f4e487b7100000000000000000000000000000000000000000000000000000000600052604160045260246000fd5b600080fd5b600080fd5b600080fd5b600080fd5b6000601f19601f8301169050919050565b7f537472696e67733a20686578206c656e67746820696e73756666696369656e74600082015250565b7f54686973206973206e6f7420616e206163746976652070726f787920636f6e7460008201527f7261637400000000000000000000000000000000000000000000000000000000602082015250565b7f416363657373436f6e74726f6c3a206163636f756e7420000000000000000000600082015250565b7f6e756d6265720000000000000000000000000000000000000000000000000000600082015250565b7f206973206d697373696e6720726f6c6520000000000000000000000000000000600082015250565b7f416363657373436f6e74726f6c3a2063616e206f6e6c792072656e6f756e636560008201527f20726f6c657320666f722073656c660000000000000000000000000000000000602082015250565b611f6d81611bc5565b8114611f7857600080fd5b50565b611f8481611be3565b8114611f8f57600080fd5b50565b611f9b81611bed565b8114611fa657600080fd5b50565b611fb281611c39565b8114611fbd57600080fd5b5056fea26469706673582212204e99ec832a1053824a82e8d9af8121af8a6b7a5ec0c1cca481709c3c38e8c21964736f6c63430008070033",
  "immutableReferences": {},
  "source": "pragma solidity 0.8.7;\n\nimport \"./Storage.sol\";\n\n/*\n* @dev this contract is the main contract \n* with which the user will interact\n* it calls the Function contract which can be updated \n* by simply updating the new function contract address \n*/\n\ncontract Proxy is Storage{\n\nmodifier onlyOwner()  {\nrequire(msg.sender == owner, \"You are not the owner\");\n_;\n}\n\nmodifier ifAdmin() {\n   if(msg.sender == owner) {\n       _;\n   }else {\n       _fallback();\n   }\n}\n\nmodifier ifUser () {\n    if(msg.sender != owner) {\n        _;\n    } else {\n        return;\n    }\n}\n\nconstructor() public {\n    owner = msg.sender;\n    //updContract = functionContract;\n    \n    //When role variables are decided we will remove the above \n    //owner = msg.sender update the code accordingly\n    _setupRole(DEFAULT_ADMIN_ROLE, _msgSender());\n    _setupRole(MANAGER_ROLE, _msgSender());\n    _setupRole(UPGRADE_OFFICER, _msgSender());\n    _setupRole(EMERGENCY_OFFICERS, _msgSender());\n    _setupRole(PARTNERS, _msgSender());\n\n}\n\nfunction addProxy(address newAddress) public ifAdmin{\n    functionalAddress[newAddress] = true;\n}\n\nfunction removeProxy(address oldAddress) public ifAdmin{\n    functionalAddress[oldAddress] = false;\n}\n\nfunction read() public view returns (uint256) {\nreturn uintStorage[\"number\"];\n}\n\n//User calls a function --> is directly directed to fallback\n//Admin calls a function --> is directed to the function in \n//the proy and prohibited from using the fallback\n\nfunction _fallback() internal ifUser {\n\n//Setting variable for the data of the function \n//This is all the input values of the function\nbytes memory data = msg.data;\n\n//Setting the proxy contract address\n//My addition : \nbytes20 _address;\n\nassembly {\n        calldatacopy(0x0, 16, 36)\n        _address := mload(0x0)\n}\n\naddress proxy = address(_address);\n\n//For security setting the condition that address is a one which we recognize\nrequire(functionalAddress[proxy], \"This is not an active proxy contract\");\n\n//The fun begins\nassembly {\nlet result := delegatecall(gas(), proxy, add(data, 0x20), mload(data), 0, 0)\nlet size := returndatasize()\nlet ptr := mload(0x40)\nreturndatacopy(ptr, 0, size)\n\nswitch result\ncase 0 {revert(ptr, size)}\ndefault {return (ptr, size)}\n}\n}\n\n\nfallback() external payable {\n    _fallback();\n}\n\n}",
  "sourcePath": "/Users/dakshjoshi/Desktop/Blockchain/Ethereum/upgradeable-contracts/contracts/Proxy.sol",
  "compiler": {
    "name": "solc",
    "version": "0.8.7+commit.e28d00a7.Emscripten.clang"
  },
  "schemaVersion": "3.4.3",
  "updatedAt": "2021-08-31T07:17:32.878Z",
  "networkType": "ethereum",
  "devdoc": {
    "kind": "dev",
    "methods": {
      "getRoleAdmin(bytes32)": {
        "details": "Returns the admin role that controls `role`. See {grantRole} and {revokeRole}. To change a role's admin, use {_setRoleAdmin}."
      },
      "getRoleMember(bytes32,uint256)": {
        "details": "Returns one of the accounts that have `role`. `index` must be a value between 0 and {getRoleMemberCount}, non-inclusive. Role bearers are not sorted in any particular way, and their ordering may change at any point. WARNING: When using {getRoleMember} and {getRoleMemberCount}, make sure you perform all queries on the same block. See the following https://forum.openzeppelin.com/t/iterating-over-elements-on-enumerableset-in-openzeppelin-contracts/2296[forum post] for more information."
      },
      "getRoleMemberCount(bytes32)": {
        "details": "Returns the number of accounts that have `role`. Can be used together with {getRoleMember} to enumerate all bearers of a role."
      },
      "grantRole(bytes32,address)": {
        "details": "Overload {grantRole} to track enumerable memberships"
      },
      "hasRole(bytes32,address)": {
        "details": "Returns `true` if `account` has been granted `role`."
      },
      "renounceRole(bytes32,address)": {
        "details": "Overload {renounceRole} to track enumerable memberships"
      },
      "revokeRole(bytes32,address)": {
        "details": "Overload {revokeRole} to track enumerable memberships"
      },
      "supportsInterface(bytes4)": {
        "details": "See {IERC165-supportsInterface}."
      }
    },
    "version": 1
  },
  "userdoc": {
    "kind": "user",
    "methods": {},
    "version": 1
  }
}