{
  "contractName": "Proxy",
  "abi": [
    {
      "inputs": [],
      "name": "number",
      "outputs": [
        {
          "internalType": "uint256",
          "name": "",
          "type": "uint256"
        }
      ],
      "stateMutability": "view",
      "type": "function",
      "constant": true
    },
    {
      "inputs": [],
      "name": "updContract",
      "outputs": [
        {
          "internalType": "address",
          "name": "",
          "type": "address"
        }
      ],
      "stateMutability": "view",
      "type": "function",
      "constant": true
    },
    {
      "inputs": [
        {
          "internalType": "address",
          "name": "newAddress",
          "type": "address"
        }
      ],
      "name": "uodateContract",
      "outputs": [],
      "stateMutability": "nonpayable",
      "type": "function"
    },
    {
      "inputs": [],
      "name": "getTheNumber",
      "outputs": [
        {
          "internalType": "uint256",
          "name": "",
          "type": "uint256"
        }
      ],
      "stateMutability": "nonpayable",
      "type": "function"
    },
    {
      "inputs": [
        {
          "internalType": "uint256",
          "name": "toSet",
          "type": "uint256"
        }
      ],
      "name": "setTheNumber",
      "outputs": [
        {
          "internalType": "bool",
          "name": "",
          "type": "bool"
        }
      ],
      "stateMutability": "nonpayable",
      "type": "function"
    }
  ],
  "bytecode": "0x608060405234801561001057600080fd5b506105c7806100206000396000f3fe608060405234801561001057600080fd5b50600436106100575760003560e01c80630105914c1461005c5780636c8189071461008c5780638381f58a146100a8578063b4a43749146100c6578063f5c8312f146100e4575b600080fd5b610076600480360381019061007191906103ad565b610102565b6040516100839190610497565b60405180910390f35b6100a660048036038101906100a19190610380565b61022a565b005b6100b061026e565b6040516100bd91906104b2565b60405180910390f35b6100ce610274565b6040516100db91906104b2565b60405180910390f35b6100ec61031b565b6040516100f9919061047c565b60405180910390f35b6000806000600160009054906101000a900473ffffffffffffffffffffffffffffffffffffffff1673ffffffffffffffffffffffffffffffffffffffff168460405160240161015191906104b2565b6040516020818303038152906040527f0105914c000000000000000000000000000000000000000000000000000000007bffffffffffffffffffffffffffffffffffffffffffffffffffffffff19166020820180517bffffffffffffffffffffffffffffffffffffffffffffffffffffffff83818316178352505050506040516101db9190610465565b600060405180830381855af49150503d8060008114610216576040519150601f19603f3d011682016040523d82523d6000602084013e61021b565b606091505b50915091508192505050919050565b80600160006101000a81548173ffffffffffffffffffffffffffffffffffffffff021916908373ffffffffffffffffffffffffffffffffffffffff16021790555050565b60005481565b6000600160009054906101000a900473ffffffffffffffffffffffffffffffffffffffff1673ffffffffffffffffffffffffffffffffffffffff1663b4a437496040518163ffffffff1660e01b815260040160206040518083038186803b1580156102de57600080fd5b505afa1580156102f2573d6000803e3d6000fd5b505050506040513d601f19601f8201168201806040525081019061031691906103da565b905090565b600160009054906101000a900473ffffffffffffffffffffffffffffffffffffffff1681565b60008135905061035081610563565b92915050565b6000813590506103658161057a565b92915050565b60008151905061037a8161057a565b92915050565b6000602082840312156103965761039561055e565b5b60006103a484828501610341565b91505092915050565b6000602082840312156103c3576103c261055e565b5b60006103d184828501610356565b91505092915050565b6000602082840312156103f0576103ef61055e565b5b60006103fe8482850161036b565b91505092915050565b610410816104e3565b82525050565b61041f816104f5565b82525050565b6000610430826104cd565b61043a81856104d8565b935061044a81856020860161052b565b80840191505092915050565b61045f81610521565b82525050565b60006104718284610425565b915081905092915050565b60006020820190506104916000830184610407565b92915050565b60006020820190506104ac6000830184610416565b92915050565b60006020820190506104c76000830184610456565b92915050565b600081519050919050565b600081905092915050565b60006104ee82610501565b9050919050565b60008115159050919050565b600073ffffffffffffffffffffffffffffffffffffffff82169050919050565b6000819050919050565b60005b8381101561054957808201518184015260208101905061052e565b83811115610558576000848401525b50505050565b600080fd5b61056c816104e3565b811461057757600080fd5b50565b61058381610521565b811461058e57600080fd5b5056fea26469706673582212207ebe53f9ddde3ffebfec0536728974634b575543b81baa088634c358cf41f6ff64736f6c63430008070033",
  "immutableReferences": {},
  "source": "pragma solidity 0.8.7;\n\nimport \"./Storage.sol\";\n\ninterface IFunction {\n    function getTheNumber() external view returns(uint256);\n}\n\n/*\n* @dev this contract is the main contract \n* with which the user will interact\n* it calls the Function contract which can be updated \n* by simply updating the new function contract address \n*/\n\ncontract Proxy is Storage{\n\naddress public updContract;\n\n/* constructor(address functionContract) {\n*     updContract = functionContract;\n}*/\n\nfunction uodateContract(address newAddress) public {\n    updContract = newAddress;\n}\n\n\n\nfunction getTheNumber() public returns(uint256){\n\nreturn IFunction(updContract).getTheNumber();\n\n//    (bool success, bytes memory data) = updContract.delegatecall(\n//         abi.encodeWithSignature(\"getNumber()\")\n//     );\n//     return (data);\n}\n\nfunction setTheNumber(uint256 toSet) public returns (bool){\n    (bool success, bytes memory data) = updContract.delegatecall(\n        abi.encodeWithSignature(\"setTheNumber(uint256)\", toSet)\n    );\n    return success;\n}\n\n}",
  "sourcePath": "/Users/dakshjoshi/Desktop/Blockchain/Ethereum/upgradeable-contracts/contracts/Proxy.sol",
  "compiler": {
    "name": "solc",
    "version": "0.8.7+commit.e28d00a7.Emscripten.clang"
  },
  "schemaVersion": "3.4.3",
  "updatedAt": "2021-08-25T13:41:44.523Z",
  "networkType": "ethereum",
  "devdoc": {
    "kind": "dev",
    "methods": {},
    "version": 1
  },
  "userdoc": {
    "kind": "user",
    "methods": {},
    "version": 1
  }
}