{
  "contractName": "Storage",
  "abi": [
    {
      "anonymous": false,
      "inputs": [
        {
          "indexed": true,
          "internalType": "bytes32",
          "name": "role",
          "type": "bytes32"
        },
        {
          "indexed": true,
          "internalType": "bytes32",
          "name": "previousAdminRole",
          "type": "bytes32"
        },
        {
          "indexed": true,
          "internalType": "bytes32",
          "name": "newAdminRole",
          "type": "bytes32"
        }
      ],
      "name": "RoleAdminChanged",
      "type": "event"
    },
    {
      "anonymous": false,
      "inputs": [
        {
          "indexed": true,
          "internalType": "bytes32",
          "name": "role",
          "type": "bytes32"
        },
        {
          "indexed": true,
          "internalType": "address",
          "name": "account",
          "type": "address"
        },
        {
          "indexed": true,
          "internalType": "address",
          "name": "sender",
          "type": "address"
        }
      ],
      "name": "RoleGranted",
      "type": "event"
    },
    {
      "anonymous": false,
      "inputs": [
        {
          "indexed": true,
          "internalType": "bytes32",
          "name": "role",
          "type": "bytes32"
        },
        {
          "indexed": true,
          "internalType": "address",
          "name": "account",
          "type": "address"
        },
        {
          "indexed": true,
          "internalType": "address",
          "name": "sender",
          "type": "address"
        }
      ],
      "name": "RoleRevoked",
      "type": "event"
    },
    {
      "inputs": [],
      "name": "DEFAULT_ADMIN_ROLE",
      "outputs": [
        {
          "internalType": "bytes32",
          "name": "",
          "type": "bytes32"
        }
      ],
      "stateMutability": "view",
      "type": "function"
    },
    {
      "inputs": [],
      "name": "EMERGENCY_OFFICERS",
      "outputs": [
        {
          "internalType": "bytes32",
          "name": "",
          "type": "bytes32"
        }
      ],
      "stateMutability": "view",
      "type": "function"
    },
    {
      "inputs": [],
      "name": "MANAGER_ROLE",
      "outputs": [
        {
          "internalType": "bytes32",
          "name": "",
          "type": "bytes32"
        }
      ],
      "stateMutability": "view",
      "type": "function"
    },
    {
      "inputs": [],
      "name": "PARTNERS",
      "outputs": [
        {
          "internalType": "bytes32",
          "name": "",
          "type": "bytes32"
        }
      ],
      "stateMutability": "view",
      "type": "function"
    },
    {
      "inputs": [],
      "name": "UPGRADE_OFFICER",
      "outputs": [
        {
          "internalType": "bytes32",
          "name": "",
          "type": "bytes32"
        }
      ],
      "stateMutability": "view",
      "type": "function"
    },
    {
      "inputs": [],
      "name": "_initialized",
      "outputs": [
        {
          "internalType": "bool",
          "name": "",
          "type": "bool"
        }
      ],
      "stateMutability": "view",
      "type": "function"
    },
    {
      "inputs": [
        {
          "internalType": "uint256",
          "name": "",
          "type": "uint256"
        }
      ],
      "name": "buyers",
      "outputs": [
        {
          "internalType": "address",
          "name": "",
          "type": "address"
        }
      ],
      "stateMutability": "view",
      "type": "function"
    },
    {
      "inputs": [
        {
          "internalType": "address",
          "name": "",
          "type": "address"
        }
      ],
      "name": "functionalAddress",
      "outputs": [
        {
          "internalType": "bool",
          "name": "",
          "type": "bool"
        }
      ],
      "stateMutability": "view",
      "type": "function"
    },
    {
      "inputs": [
        {
          "internalType": "bytes32",
          "name": "role",
          "type": "bytes32"
        }
      ],
      "name": "getRoleAdmin",
      "outputs": [
        {
          "internalType": "bytes32",
          "name": "",
          "type": "bytes32"
        }
      ],
      "stateMutability": "view",
      "type": "function"
    },
    {
      "inputs": [
        {
          "internalType": "bytes32",
          "name": "role",
          "type": "bytes32"
        },
        {
          "internalType": "uint256",
          "name": "index",
          "type": "uint256"
        }
      ],
      "name": "getRoleMember",
      "outputs": [
        {
          "internalType": "address",
          "name": "",
          "type": "address"
        }
      ],
      "stateMutability": "view",
      "type": "function"
    },
    {
      "inputs": [
        {
          "internalType": "bytes32",
          "name": "role",
          "type": "bytes32"
        }
      ],
      "name": "getRoleMemberCount",
      "outputs": [
        {
          "internalType": "uint256",
          "name": "",
          "type": "uint256"
        }
      ],
      "stateMutability": "view",
      "type": "function"
    },
    {
      "inputs": [
        {
          "internalType": "bytes32",
          "name": "role",
          "type": "bytes32"
        },
        {
          "internalType": "address",
          "name": "account",
          "type": "address"
        }
      ],
      "name": "grantRole",
      "outputs": [],
      "stateMutability": "nonpayable",
      "type": "function"
    },
    {
      "inputs": [
        {
          "internalType": "bytes32",
          "name": "role",
          "type": "bytes32"
        },
        {
          "internalType": "address",
          "name": "account",
          "type": "address"
        }
      ],
      "name": "hasRole",
      "outputs": [
        {
          "internalType": "bool",
          "name": "",
          "type": "bool"
        }
      ],
      "stateMutability": "view",
      "type": "function"
    },
    {
      "inputs": [],
      "name": "owner",
      "outputs": [
        {
          "internalType": "address",
          "name": "",
          "type": "address"
        }
      ],
      "stateMutability": "view",
      "type": "function"
    },
    {
      "inputs": [
        {
          "internalType": "uint256",
          "name": "",
          "type": "uint256"
        }
      ],
      "name": "partnerList",
      "outputs": [
        {
          "internalType": "string",
          "name": "",
          "type": "string"
        }
      ],
      "stateMutability": "view",
      "type": "function"
    },
    {
      "inputs": [
        {
          "internalType": "bytes32",
          "name": "role",
          "type": "bytes32"
        },
        {
          "internalType": "address",
          "name": "account",
          "type": "address"
        }
      ],
      "name": "renounceRole",
      "outputs": [],
      "stateMutability": "nonpayable",
      "type": "function"
    },
    {
      "inputs": [
        {
          "internalType": "bytes32",
          "name": "role",
          "type": "bytes32"
        },
        {
          "internalType": "address",
          "name": "account",
          "type": "address"
        }
      ],
      "name": "revokeRole",
      "outputs": [],
      "stateMutability": "nonpayable",
      "type": "function"
    },
    {
      "inputs": [
        {
          "internalType": "bytes4",
          "name": "interfaceId",
          "type": "bytes4"
        }
      ],
      "name": "supportsInterface",
      "outputs": [
        {
          "internalType": "bool",
          "name": "",
          "type": "bool"
        }
      ],
      "stateMutability": "view",
      "type": "function"
    },
    {
      "inputs": [
        {
          "internalType": "string",
          "name": "",
          "type": "string"
        }
      ],
      "name": "uintStorage",
      "outputs": [
        {
          "internalType": "uint256",
          "name": "",
          "type": "uint256"
        }
      ],
      "stateMutability": "view",
      "type": "function"
    }
  ],
  "bytecode": "0x608060405234801561001057600080fd5b50611a59806100206000396000f3fe608060405234801561001057600080fd5b50600436106101215760003560e01c806391d14854116100ad578063e5bd74f811610071578063e5bd74f814610342578063ec87621c14610360578063f13b874d1461037e578063f2aa8218146103ae578063ffa3f38f146103de57610121565b806391d148541461028a57806394b91f06146102ba578063a217fddf146102d8578063ca15c873146102f6578063d547741f1461032657610121565b80633072cf60116100f45780633072cf60146101d257806336568abe146101f057806385ccf0641461020c5780638da5cb5b1461023c5780639010d07c1461025a57610121565b806301ffc9a714610126578063147dbafa14610156578063248a9ca3146101865780632f2ff15d146101b6575b600080fd5b610140600480360381019061013b9190611262565b6103fc565b60405161014d919061148c565b60405180910390f35b610170600480360381019061016b9190611188565b610476565b60405161017d919061148c565b60405180910390f35b6101a0600480360381019061019b91906111b5565b610496565b6040516101ad91906114a7565b60405180910390f35b6101d060048036038101906101cb91906111e2565b6104b5565b005b6101da6104e9565b6040516101e7919061148c565b60405180910390f35b61020a600480360381019061020591906111e2565b6104fc565b005b6102266004803603810190610221919061128f565b610530565b6040516102339190611524565b60405180910390f35b61024461055e565b6040516102519190611471565b60405180910390f35b610274600480360381019061026f9190611222565b610584565b6040516102819190611471565b60405180910390f35b6102a4600480360381019061029f91906111e2565b6105b3565b6040516102b1919061148c565b60405180910390f35b6102c261061d565b6040516102cf91906114a7565b60405180910390f35b6102e0610641565b6040516102ed91906114a7565b60405180910390f35b610310600480360381019061030b91906111b5565b610648565b60405161031d9190611524565b60405180910390f35b610340600480360381019061033b91906111e2565b61066c565b005b61034a6106a0565b60405161035791906114a7565b60405180910390f35b6103686106c4565b60405161037591906114a7565b60405180910390f35b610398600480360381019061039391906112d8565b6106e8565b6040516103a591906114c2565b60405180910390f35b6103c860048036038101906103c391906112d8565b610794565b6040516103d59190611471565b60405180910390f35b6103e66107d3565b6040516103f391906114a7565b60405180910390f35b60007f5a05180f000000000000000000000000000000000000000000000000000000007bffffffffffffffffffffffffffffffffffffffffffffffffffffffff1916827bffffffffffffffffffffffffffffffffffffffffffffffffffffffff1916148061046f575061046e826107f7565b5b9050919050565b600a6020528060005260406000206000915054906101000a900460ff1681565b6000806000838152602001908152602001600020600101549050919050565b6104bf8282610871565b6104e4816001600085815260200190815260200160002061089a90919063ffffffff16565b505050565b600b60149054906101000a900460ff1681565b61050682826108ca565b61052b816001600085815260200190815260200160002061094d90919063ffffffff16565b505050565b6002818051602081018201805184825260208301602085012081835280955050505050506000915090505481565b600b60009054906101000a900473ffffffffffffffffffffffffffffffffffffffff1681565b60006105ab826001600086815260200190815260200160002061097d90919063ffffffff16565b905092915050565b600080600084815260200190815260200160002060000160008373ffffffffffffffffffffffffffffffffffffffff1673ffffffffffffffffffffffffffffffffffffffff16815260200190815260200160002060009054906101000a900460ff16905092915050565b7f3c8423ff9fe65335563f5616901f1459e02fafa085751c8aaf5f91b0b006982381565b6000801b81565b600061066560016000848152602001908152602001600020610997565b9050919050565b61067682826109ac565b61069b816001600085815260200190815260200160002061094d90919063ffffffff16565b505050565b7fe9d0e485f08e27baee0a8ae54381bc81292327c4ccf9bc5fab2fe4f0386e937781565b7f8a383c952fa3b6cf68c809af9e47ea2531b95c56f330357f533bebcc3fed7ca381565b600481815481106106f857600080fd5b9060005260206000200160009150905080546107139061178a565b80601f016020809104026020016040519081016040528092919081815260200182805461073f9061178a565b801561078c5780601f106107615761010080835404028352916020019161078c565b820191906000526020600020905b81548152906001019060200180831161076f57829003601f168201915b505050505081565b600781815481106107a457600080fd5b906000526020600020016000915054906101000a900473ffffffffffffffffffffffffffffffffffffffff1681565b7f94d356c6a55eaf8799345c99aff299019cbf14e68cc4c78e9f854ac57c94033c81565b60007f7965db0b000000000000000000000000000000000000000000000000000000007bffffffffffffffffffffffffffffffffffffffffffffffffffffffff1916827bffffffffffffffffffffffffffffffffffffffffffffffffffffffff1916148061086a5750610869826109d5565b5b9050919050565b61087a82610496565b61088b81610886610a3f565b610a47565b6108958383610ae4565b505050565b60006108c2836000018373ffffffffffffffffffffffffffffffffffffffff1660001b610bc4565b905092915050565b6108d2610a3f565b73ffffffffffffffffffffffffffffffffffffffff168173ffffffffffffffffffffffffffffffffffffffff161461093f576040517f08c379a000000000000000000000000000000000000000000000000000000000815260040161093690611504565b60405180910390fd5b6109498282610c34565b5050565b6000610975836000018373ffffffffffffffffffffffffffffffffffffffff1660001b610d15565b905092915050565b600061098c8360000183610e29565b60001c905092915050565b60006109a582600001610e54565b9050919050565b6109b582610496565b6109c6816109c1610a3f565b610a47565b6109d08383610c34565b505050565b60007f01ffc9a7000000000000000000000000000000000000000000000000000000007bffffffffffffffffffffffffffffffffffffffffffffffffffffffff1916827bffffffffffffffffffffffffffffffffffffffffffffffffffffffff1916149050919050565b600033905090565b610a5182826105b3565b610ae057610a768173ffffffffffffffffffffffffffffffffffffffff166014610e65565b610a848360001c6020610e65565b604051602001610a95929190611437565b6040516020818303038152906040526040517f08c379a0000000000000000000000000000000000000000000000000000000008152600401610ad791906114c2565b60405180910390fd5b5050565b610aee82826105b3565b610bc057600160008084815260200190815260200160002060000160008373ffffffffffffffffffffffffffffffffffffffff1673ffffffffffffffffffffffffffffffffffffffff16815260200190815260200160002060006101000a81548160ff021916908315150217905550610b65610a3f565b73ffffffffffffffffffffffffffffffffffffffff168173ffffffffffffffffffffffffffffffffffffffff16837f2f8788117e7eff1d82e926ec794901d17c78024a50270940304540a733656f0d60405160405180910390a45b5050565b6000610bd083836110a1565b610c29578260000182908060018154018082558091505060019003906000526020600020016000909190919091505582600001805490508360010160008481526020019081526020016000208190555060019050610c2e565b600090505b92915050565b610c3e82826105b3565b15610d1157600080600084815260200190815260200160002060000160008373ffffffffffffffffffffffffffffffffffffffff1673ffffffffffffffffffffffffffffffffffffffff16815260200190815260200160002060006101000a81548160ff021916908315150217905550610cb6610a3f565b73ffffffffffffffffffffffffffffffffffffffff168173ffffffffffffffffffffffffffffffffffffffff16837ff6391f5c32d9c69d2a47ea670b442974b53935d1edc7fd64eb21e047a839171b60405160405180910390a45b5050565b60008083600101600084815260200190815260200160002054905060008114610e1d576000600182610d47919061166c565b9050600060018660000180549050610d5f919061166c565b9050818114610dce576000866000018281548110610d8057610d7f61187a565b5b9060005260206000200154905080876000018481548110610da457610da361187a565b5b90600052602060002001819055508387600101600083815260200190815260200160002081905550505b85600001805480610de257610de161184b565b5b600190038181906000526020600020016000905590558560010160008681526020019081526020016000206000905560019350505050610e23565b60009150505b92915050565b6000826000018281548110610e4157610e4061187a565b5b9060005260206000200154905092915050565b600081600001805490509050919050565b606060006002836002610e789190611612565b610e8291906115bc565b67ffffffffffffffff811115610e9b57610e9a6118a9565b5b6040519080825280601f01601f191660200182016040528015610ecd5781602001600182028036833780820191505090505b5090507f300000000000000000000000000000000000000000000000000000000000000081600081518110610f0557610f0461187a565b5b60200101907effffffffffffffffffffffffffffffffffffffffffffffffffffffffffffff1916908160001a9053507f780000000000000000000000000000000000000000000000000000000000000081600181518110610f6957610f6861187a565b5b60200101907effffffffffffffffffffffffffffffffffffffffffffffffffffffffffffff1916908160001a90535060006001846002610fa99190611612565b610fb391906115bc565b90505b6001811115611053577f3031323334353637383961626364656600000000000000000000000000000000600f861660108110610ff557610ff461187a565b5b1a60f81b82828151811061100c5761100b61187a565b5b60200101907effffffffffffffffffffffffffffffffffffffffffffffffffffffffffffff1916908160001a905350600485901c94508061104c90611760565b9050610fb6565b5060008414611097576040517f08c379a000000000000000000000000000000000000000000000000000000000815260040161108e906114e4565b60405180910390fd5b8091505092915050565b600080836001016000848152602001908152602001600020541415905092915050565b60006110d76110d284611564565b61153f565b9050828152602081018484840111156110f3576110f26118dd565b5b6110fe84828561171e565b509392505050565b600081359050611115816119c7565b92915050565b60008135905061112a816119de565b92915050565b60008135905061113f816119f5565b92915050565b600082601f83011261115a576111596118d8565b5b813561116a8482602086016110c4565b91505092915050565b60008135905061118281611a0c565b92915050565b60006020828403121561119e5761119d6118e7565b5b60006111ac84828501611106565b91505092915050565b6000602082840312156111cb576111ca6118e7565b5b60006111d98482850161111b565b91505092915050565b600080604083850312156111f9576111f86118e7565b5b60006112078582860161111b565b925050602061121885828601611106565b9150509250929050565b60008060408385031215611239576112386118e7565b5b60006112478582860161111b565b925050602061125885828601611173565b9150509250929050565b600060208284031215611278576112776118e7565b5b600061128684828501611130565b91505092915050565b6000602082840312156112a5576112a46118e7565b5b600082013567ffffffffffffffff8111156112c3576112c26118e2565b5b6112cf84828501611145565b91505092915050565b6000602082840312156112ee576112ed6118e7565b5b60006112fc84828501611173565b91505092915050565b61130e816116a0565b82525050565b61131d816116b2565b82525050565b61132c816116be565b82525050565b600061133d82611595565b61134781856115a0565b935061135781856020860161172d565b611360816118ec565b840191505092915050565b600061137682611595565b61138081856115b1565b935061139081856020860161172d565b80840191505092915050565b60006113a96020836115a0565b91506113b4826118fd565b602082019050919050565b60006113cc6017836115b1565b91506113d782611926565b601782019050919050565b60006113ef6011836115b1565b91506113fa8261194f565b601182019050919050565b6000611412602f836115a0565b915061141d82611978565b604082019050919050565b61143181611714565b82525050565b6000611442826113bf565b915061144e828561136b565b9150611459826113e2565b9150611465828461136b565b91508190509392505050565b60006020820190506114866000830184611305565b92915050565b60006020820190506114a16000830184611314565b92915050565b60006020820190506114bc6000830184611323565b92915050565b600060208201905081810360008301526114dc8184611332565b905092915050565b600060208201905081810360008301526114fd8161139c565b9050919050565b6000602082019050818103600083015261151d81611405565b9050919050565b60006020820190506115396000830184611428565b92915050565b600061154961155a565b905061155582826117bc565b919050565b6000604051905090565b600067ffffffffffffffff82111561157f5761157e6118a9565b5b611588826118ec565b9050602081019050919050565b600081519050919050565b600082825260208201905092915050565b600081905092915050565b60006115c782611714565b91506115d283611714565b9250827fffffffffffffffffffffffffffffffffffffffffffffffffffffffffffffffff03821115611607576116066117ed565b5b828201905092915050565b600061161d82611714565b915061162883611714565b9250817fffffffffffffffffffffffffffffffffffffffffffffffffffffffffffffffff0483118215151615611661576116606117ed565b5b828202905092915050565b600061167782611714565b915061168283611714565b925082821015611695576116946117ed565b5b828203905092915050565b60006116ab826116f4565b9050919050565b60008115159050919050565b6000819050919050565b60007fffffffff0000000000000000000000000000000000000000000000000000000082169050919050565b600073ffffffffffffffffffffffffffffffffffffffff82169050919050565b6000819050919050565b82818337600083830152505050565b60005b8381101561174b578082015181840152602081019050611730565b8381111561175a576000848401525b50505050565b600061176b82611714565b9150600082141561177f5761177e6117ed565b5b600182039050919050565b600060028204905060018216806117a257607f821691505b602082108114156117b6576117b561181c565b5b50919050565b6117c5826118ec565b810181811067ffffffffffffffff821117156117e4576117e36118a9565b5b80604052505050565b7f4e487b7100000000000000000000000000000000000000000000000000000000600052601160045260246000fd5b7f4e487b7100000000000000000000000000000000000000000000000000000000600052602260045260246000fd5b7f4e487b7100000000000000000000000000000000000000000000000000000000600052603160045260246000fd5b7f4e487b7100000000000000000000000000000000000000000000000000000000600052603260045260246000fd5b7f4e487b7100000000000000000000000000000000000000000000000000000000600052604160045260246000fd5b600080fd5b600080fd5b600080fd5b600080fd5b6000601f19601f8301169050919050565b7f537472696e67733a20686578206c656e67746820696e73756666696369656e74600082015250565b7f416363657373436f6e74726f6c3a206163636f756e7420000000000000000000600082015250565b7f206973206d697373696e6720726f6c6520000000000000000000000000000000600082015250565b7f416363657373436f6e74726f6c3a2063616e206f6e6c792072656e6f756e636560008201527f20726f6c657320666f722073656c660000000000000000000000000000000000602082015250565b6119d0816116a0565b81146119db57600080fd5b50565b6119e7816116be565b81146119f257600080fd5b50565b6119fe816116c8565b8114611a0957600080fd5b50565b611a1581611714565b8114611a2057600080fd5b5056fea2646970667358221220bfe6ab619b119906d546234316570e79f38ac3ffba5e03aa202b78eeaf95255e64736f6c63430008070033",
  "immutableReferences": {},
  "source": "pragma solidity 0.8.7;\n\nimport \"@openzeppelin/contracts/access/AccessControlEnumerable.sol\";\n\n/*\n* @dev this contract is to set common \n* storage which will be inherited by both\n* proxy and Function contract\n*/\n\ncontract Storage is AccessControlEnumerable {\n    mapping (string => uint256) public uintStorage;\n\n/*Instead of doing uint256 public number;\n* we do the above mentined mapping \n* a mapping for \"number\"=> uint256 \n* Benefit : tomorrow if we need to add more variables like cat, dog, crocodile\n* Then we can just define those variables in the mapping\n* Like cat=> uint256, dog=> uint256, crocodile=> uint256\n* Like uintStorage[\"dog\"] = 10;\n*/\n\n/*\n* Now we will create many mappings for each variable type\n*/\n\n//Partner Details\nmapping (string => partnerDetails) partners;\n\nstruct partnerDetails {\n    string name;\n    Type _type; \n    bool active;\n    Status status;\n    uint activeFrom;\n    uint totalSold;\n\n    mapping(string => string) moreDetails;\n    string [] moreDetailsKeys;\n}\n\nstring [] public partnerList;\n\nenum Status {ACTIVE, NEW, UPCOMING, COMINGBACK, BANNED}\n\nenum Type {DEFI, CONTEMPORARY, OTHERS}\n\n\n//Defining all the products stored on a per user basis \n// Keys : address of users\nmapping (address => mapping (uint => productDetails)) internal userBought;\nmapping (address => uint) totalBought;\n\naddress [] public buyers;\n\n//Definining all the products sold in a per partner basis\n// Keys : name of partners\nmapping (string => mapping (uint => productDetails)) internal soldPerPartner;\n\n//Keys : Amount, Poduct, Currency, Period, Provider => 5,Curve pool cover, Eth, 4, Nexus Mutual\n// mapping (string => string)public Product;\n//Keys : Amount, product, currency, period => Wei, \"Address of the pool cover\", Wei, weeks, address of Nexus Mutual\n//mapping (string => string) public Units;\n\nstruct productDetails {\n    mapping (string => string) Product;\n    mapping (string => string) Units;\n\n    uint amount;\n    uint timeStamp;\n\n    mapping (string => string) moreDetails;\n    mapping (string => mapping(string => string)) additinaDetails;\n    string [] moreDetailsKeys;\n\n    bool exists;\n}\n\nmapping (string => mapping (string => string)) Units;\n//mapping (string => string) moreDetails;\n\n\nmapping (address => bool) public functionalAddress;\n\naddress public owner;\nbool public _initialized;\n\n\nbytes32 public constant MANAGER_ROLE = keccak256(\"MANAGERS\");\nbytes32 public constant UPGRADE_OFFICER = keccak256(\"UPGRADE_OFFICERS\");\nbytes32 public constant EMERGENCY_OFFICERS = keccak256(\"EMERGENCY_OFFICERS\");\nbytes32 public constant PARTNERS = keccak256(\"PARTNERS\");\n\n}",
  "sourcePath": "/Users/dakshjoshi/Desktop/Blockchain/Ethereum/upgradeable-contracts/contracts/Storage.sol",
  "compiler": {
    "name": "solc",
    "version": "0.8.7+commit.e28d00a7.Emscripten.clang"
  },
  "schemaVersion": "3.4.3",
  "updatedAt": "2021-08-31T07:17:31.530Z",
  "devdoc": {
    "kind": "dev",
    "methods": {
      "getRoleAdmin(bytes32)": {
        "details": "Returns the admin role that controls `role`. See {grantRole} and {revokeRole}. To change a role's admin, use {_setRoleAdmin}."
      },
      "getRoleMember(bytes32,uint256)": {
        "details": "Returns one of the accounts that have `role`. `index` must be a value between 0 and {getRoleMemberCount}, non-inclusive. Role bearers are not sorted in any particular way, and their ordering may change at any point. WARNING: When using {getRoleMember} and {getRoleMemberCount}, make sure you perform all queries on the same block. See the following https://forum.openzeppelin.com/t/iterating-over-elements-on-enumerableset-in-openzeppelin-contracts/2296[forum post] for more information."
      },
      "getRoleMemberCount(bytes32)": {
        "details": "Returns the number of accounts that have `role`. Can be used together with {getRoleMember} to enumerate all bearers of a role."
      },
      "grantRole(bytes32,address)": {
        "details": "Overload {grantRole} to track enumerable memberships"
      },
      "hasRole(bytes32,address)": {
        "details": "Returns `true` if `account` has been granted `role`."
      },
      "renounceRole(bytes32,address)": {
        "details": "Overload {renounceRole} to track enumerable memberships"
      },
      "revokeRole(bytes32,address)": {
        "details": "Overload {revokeRole} to track enumerable memberships"
      },
      "supportsInterface(bytes4)": {
        "details": "See {IERC165-supportsInterface}."
      }
    },
    "version": 1
  },
  "userdoc": {
    "kind": "user",
    "methods": {},
    "version": 1
  }
}