{
  "contractName": "Storage",
  "abi": [
    {
      "inputs": [],
      "name": "number",
      "outputs": [
        {
          "internalType": "uint256",
          "name": "",
          "type": "uint256"
        }
      ],
      "stateMutability": "view",
      "type": "function"
    }
  ],
  "bytecode": "0x608060405234801561001057600080fd5b5060b38061001f6000396000f3fe6080604052348015600f57600080fd5b506004361060285760003560e01c80638381f58a14602d575b600080fd5b60336047565b604051603e9190605a565b60405180910390f35b60005481565b6054816073565b82525050565b6000602082019050606d6000830184604d565b92915050565b600081905091905056fea2646970667358221220628296f7e8e639fb62d6a3438af6bbf79ffd1add7e7851d2dd1057adc8bcbd7764736f6c63430008070033",
  "immutableReferences": {},
  "source": "pragma solidity 0.8.7;\n\n/*\n* @dev this contract is to set common \n* storage which will be inherited by both\n* proxy and Function contract\n*/\n\ncontract Storage {\n    uint256 public number;\n\n    function getNumber() internal view returns(uint256) {\nreturn number;\n    }\n    \n    function setNumber(uint256 _number) internal  {\n    number = _number;\n    }\n}",
  "sourcePath": "/Users/dakshjoshi/Desktop/Blockchain/Ethereum/upgradeable-contracts/contracts/Storage.sol",
  "compiler": {
    "name": "solc",
    "version": "0.8.7+commit.e28d00a7.Emscripten.clang"
  },
  "schemaVersion": "3.4.3",
  "updatedAt": "2021-08-25T13:11:35.966Z",
  "devdoc": {
    "kind": "dev",
    "methods": {},
    "version": 1
  },
  "userdoc": {
    "kind": "user",
    "methods": {},
    "version": 1
  }
}